{
  "address": "0x5FbDB2315678afecb367f032d93F642f64180aa3",
  "abi": [
    {
      "inputs": [],
      "stateMutability": "nonpayable",
      "type": "constructor"
    },
    {
      "anonymous": false,
      "inputs": [
        {
          "indexed": true,
          "internalType": "address",
          "name": "owner",
          "type": "address"
        },
        {
          "indexed": true,
          "internalType": "address",
          "name": "spender",
          "type": "address"
        },
        {
          "indexed": true,
          "internalType": "uint256",
          "name": "id",
          "type": "uint256"
        }
      ],
      "name": "Approval",
      "type": "event"
    },
    {
      "anonymous": false,
      "inputs": [
        {
          "indexed": true,
          "internalType": "address",
          "name": "owner",
          "type": "address"
        },
        {
          "indexed": true,
          "internalType": "address",
          "name": "operator",
          "type": "address"
        },
        {
          "indexed": false,
          "internalType": "bool",
          "name": "approved",
          "type": "bool"
        }
      ],
      "name": "ApprovalForAll",
      "type": "event"
    },
    {
      "anonymous": false,
      "inputs": [
        {
          "indexed": true,
          "internalType": "uint256",
          "name": "tokenId",
          "type": "uint256"
        }
      ],
      "name": "CreatedMomentNFT",
      "type": "event"
    },
    {
      "anonymous": false,
      "inputs": [
        {
          "indexed": true,
          "internalType": "address",
          "name": "from",
          "type": "address"
        },
        {
          "indexed": true,
          "internalType": "address",
          "name": "to",
          "type": "address"
        },
        {
          "indexed": true,
          "internalType": "uint256",
          "name": "id",
          "type": "uint256"
        }
      ],
      "name": "Transfer",
      "type": "event"
    },
    {
      "inputs": [
        {
          "internalType": "address",
          "name": "spender",
          "type": "address"
        },
        {
          "internalType": "uint256",
          "name": "id",
          "type": "uint256"
        }
      ],
      "name": "approve",
      "outputs": [],
      "stateMutability": "nonpayable",
      "type": "function"
    },
    {
      "inputs": [
        {
          "internalType": "address",
          "name": "",
          "type": "address"
        }
      ],
      "name": "balanceOf",
      "outputs": [
        {
          "internalType": "uint256",
          "name": "",
          "type": "uint256"
        }
      ],
      "stateMutability": "view",
      "type": "function"
    },
    {
      "inputs": [],
      "name": "claimPrice",
      "outputs": [
        {
          "internalType": "uint256",
          "name": "",
          "type": "uint256"
        }
      ],
      "stateMutability": "view",
      "type": "function"
    },
    {
      "inputs": [
        {
          "internalType": "address",
          "name": "",
          "type": "address"
        }
      ],
      "name": "claimed",
      "outputs": [
        {
          "internalType": "bool",
          "name": "",
          "type": "bool"
        }
      ],
      "stateMutability": "view",
      "type": "function"
    },
    {
      "inputs": [
        {
          "internalType": "int8",
          "name": "_timeZoneHour",
          "type": "int8"
        },
        {
          "internalType": "int8",
          "name": "_timeZoneMin",
          "type": "int8"
        }
      ],
      "name": "create",
      "outputs": [],
      "stateMutability": "payable",
      "type": "function"
    },
    {
      "inputs": [
        {
          "internalType": "uint256",
          "name": "",
          "type": "uint256"
        }
      ],
      "name": "getApproved",
      "outputs": [
        {
          "internalType": "address",
          "name": "",
          "type": "address"
        }
      ],
      "stateMutability": "view",
      "type": "function"
    },
    {
      "inputs": [
        {
          "internalType": "uint256",
          "name": "_id",
          "type": "uint256"
        }
      ],
      "name": "getOwnerOfNFTId",
      "outputs": [
        {
          "internalType": "address",
          "name": "owner",
          "type": "address"
        }
      ],
      "stateMutability": "view",
      "type": "function"
    },
    {
      "inputs": [
        {
          "internalType": "address",
          "name": "_userAddress",
          "type": "address"
        }
      ],
      "name": "getUserNFTTokenId",
      "outputs": [
        {
          "internalType": "uint256",
          "name": "tokenId",
          "type": "uint256"
        }
      ],
      "stateMutability": "view",
      "type": "function"
    },
    {
      "inputs": [
        {
          "internalType": "address",
          "name": "",
          "type": "address"
        },
        {
          "internalType": "address",
          "name": "",
          "type": "address"
        }
      ],
      "name": "isApprovedForAll",
      "outputs": [
        {
          "internalType": "bool",
          "name": "",
          "type": "bool"
        }
      ],
      "stateMutability": "view",
      "type": "function"
    },
    {
      "inputs": [],
      "name": "name",
      "outputs": [
        {
          "internalType": "string",
          "name": "",
          "type": "string"
        }
      ],
      "stateMutability": "view",
      "type": "function"
    },
    {
      "inputs": [
        {
          "internalType": "uint256",
          "name": "",
          "type": "uint256"
        }
      ],
      "name": "ownerOf",
      "outputs": [
        {
          "internalType": "address",
          "name": "",
          "type": "address"
        }
      ],
      "stateMutability": "view",
      "type": "function"
    },
    {
      "inputs": [
        {
          "internalType": "uint256",
          "name": "",
          "type": "uint256"
        }
      ],
      "name": "ownerOfNFTId",
      "outputs": [
        {
          "internalType": "address",
          "name": "",
          "type": "address"
        }
      ],
      "stateMutability": "view",
      "type": "function"
    },
    {
      "inputs": [
        {
          "internalType": "address",
          "name": "from",
          "type": "address"
        },
        {
          "internalType": "address",
          "name": "to",
          "type": "address"
        },
        {
          "internalType": "uint256",
          "name": "id",
          "type": "uint256"
        }
      ],
      "name": "safeTransferFrom",
      "outputs": [],
      "stateMutability": "nonpayable",
      "type": "function"
    },
    {
      "inputs": [
        {
          "internalType": "address",
          "name": "from",
          "type": "address"
        },
        {
          "internalType": "address",
          "name": "to",
          "type": "address"
        },
        {
          "internalType": "uint256",
          "name": "id",
          "type": "uint256"
        },
        {
          "internalType": "bytes",
          "name": "data",
          "type": "bytes"
        }
      ],
      "name": "safeTransferFrom",
      "outputs": [],
      "stateMutability": "nonpayable",
      "type": "function"
    },
    {
      "inputs": [
        {
          "internalType": "address",
          "name": "operator",
          "type": "address"
        },
        {
          "internalType": "bool",
          "name": "approved",
          "type": "bool"
        }
      ],
      "name": "setApprovalForAll",
      "outputs": [],
      "stateMutability": "nonpayable",
      "type": "function"
    },
    {
      "inputs": [
        {
          "internalType": "int8",
          "name": "_timeZoneHour",
          "type": "int8"
        },
        {
          "internalType": "int8",
          "name": "_timeZoneMin",
          "type": "int8"
        },
        {
          "internalType": "uint256",
          "name": "tokenId",
          "type": "uint256"
        }
      ],
      "name": "setTimeZone",
      "outputs": [],
      "stateMutability": "nonpayable",
      "type": "function"
    },
    {
      "inputs": [
        {
          "internalType": "bytes4",
          "name": "interfaceId",
          "type": "bytes4"
        }
      ],
      "name": "supportsInterface",
      "outputs": [
        {
          "internalType": "bool",
          "name": "",
          "type": "bool"
        }
      ],
      "stateMutability": "view",
      "type": "function"
    },
    {
      "inputs": [
        {
          "internalType": "string",
          "name": "_svg",
          "type": "string"
        }
      ],
      "name": "svgToImageURI",
      "outputs": [
        {
          "internalType": "string",
          "name": "",
          "type": "string"
        }
      ],
      "stateMutability": "pure",
      "type": "function"
    },
    {
      "inputs": [],
      "name": "symbol",
      "outputs": [
        {
          "internalType": "string",
          "name": "",
          "type": "string"
        }
      ],
      "stateMutability": "view",
      "type": "function"
    },
    {
      "inputs": [
        {
          "internalType": "uint256",
          "name": "",
          "type": "uint256"
        }
      ],
      "name": "timeZoneHour",
      "outputs": [
        {
          "internalType": "int8",
          "name": "",
          "type": "int8"
        }
      ],
      "stateMutability": "view",
      "type": "function"
    },
    {
      "inputs": [
        {
          "internalType": "uint256",
          "name": "",
          "type": "uint256"
        }
      ],
      "name": "timeZoneMin",
      "outputs": [
        {
          "internalType": "int8",
          "name": "",
          "type": "int8"
        }
      ],
      "stateMutability": "view",
      "type": "function"
    },
    {
      "inputs": [],
      "name": "tokenCounter",
      "outputs": [
        {
          "internalType": "uint256",
          "name": "",
          "type": "uint256"
        }
      ],
      "stateMutability": "view",
      "type": "function"
    },
    {
      "inputs": [
        {
          "internalType": "uint256",
          "name": "id",
          "type": "uint256"
        }
      ],
      "name": "tokenURI",
      "outputs": [
        {
          "internalType": "string",
          "name": "",
          "type": "string"
        }
      ],
      "stateMutability": "view",
      "type": "function"
    },
    {
      "inputs": [
        {
          "internalType": "address",
          "name": "from",
          "type": "address"
        },
        {
          "internalType": "address",
          "name": "to",
          "type": "address"
        },
        {
          "internalType": "uint256",
          "name": "id",
          "type": "uint256"
        }
      ],
      "name": "transferFrom",
      "outputs": [],
      "stateMutability": "nonpayable",
      "type": "function"
    },
    {
      "inputs": [
        {
          "internalType": "address",
          "name": "",
          "type": "address"
        }
      ],
      "name": "userNFTTokenId",
      "outputs": [
        {
          "internalType": "uint256",
          "name": "",
          "type": "uint256"
        }
      ],
      "stateMutability": "view",
      "type": "function"
    },
    {
      "inputs": [],
      "name": "withdraw",
      "outputs": [],
      "stateMutability": "nonpayable",
      "type": "function"
    },
    {
      "inputs": [],
      "name": "withdrawAddress",
      "outputs": [
        {
          "internalType": "address",
          "name": "",
          "type": "address"
        }
      ],
      "stateMutability": "view",
      "type": "function"
    }
  ],
  "transactionHash": "0x560732770643e46de061f1d2d1dd2ef828ccdb8fccdb24e10f25af4f8869a5f4",
  "args": [],
  "numDeployments": 1,
  "solcInputHash": "dd618d6dd936273b6dc8e479b34652a2",
  "bytecode": "0x60c060405267d02ab486cedc000060809081525073245e32dba4e30b483f618a3940309236aaebbbc573ffffffffffffffffffffffffffffffffffffffff1660a09073ffffffffffffffffffffffffffffffffffffffff168152503480156200006757600080fd5b506040518060400160405280600a81526020017f4d6f6d656e74204e4654000000000000000000000000000000000000000000008152506040518060400160405280600981526020017f6d6f6d656e744e465400000000000000000000000000000000000000000000008152508160009080519060200190620000ec92919062000116565b5080600190805190602001906200010592919062000116565b50505060006006819055506200022b565b8280546200012490620001f5565b90600052602060002090601f01602090048101928262000148576000855562000194565b82601f106200016357805160ff191683800117855562000194565b8280016001018555821562000194579182015b828111156200019357825182559160200191906001019062000176565b5b509050620001a39190620001a7565b5090565b5b80821115620001c2576000816000905550600101620001a8565b5090565b7f4e487b7100000000000000000000000000000000000000000000000000000000600052602260045260246000fd5b600060028204905060018216806200020e57607f821691505b60208210811415620002255762000224620001c6565b5b50919050565b60805160a05161480f6200026660003960008181610a350152610f19015260008181610a590152818161179d01526119e4015261480f6000f3fe60806040526004361061019c5760003560e01c80636352211e116100ec578063c87b56dd1161008a578063ce9ecbd111610064578063ce9ecbd11461064a578063d082e38114610673578063db819ade1461069e578063e985e9c5146106ba5761019c565b8063c87b56dd14610593578063c884ef83146105d0578063cdc1d7921461060d5761019c565b80637c6d56a6116100c65780637c6d56a6146104d957806395d89b4114610516578063a22cb46514610541578063b88d4fde1461056a5761019c565b80636352211e14610422578063679133401461045f57806370a082311461049c5761019c565b806323b872dd116101595780633afbf251116101335780633afbf251146103685780633ccfd60b146103a55780633fb2b692146103bc57806342842e0e146103f95761019c565b806323b872dd146102c557806330d871c6146102ee5780633af9e89c1461032b5761019c565b806301ffc9a7146101a157806306fdde03146101de578063081812fc14610209578063095ea7b3146102465780631581b6001461026f57806315d655c91461029a575b600080fd5b3480156101ad57600080fd5b506101c860048036038101906101c391906121c7565b6106f7565b6040516101d5919061220f565b60405180910390f35b3480156101ea57600080fd5b506101f3610789565b60405161020091906122c3565b60405180910390f35b34801561021557600080fd5b50610230600480360381019061022b919061231b565b610817565b60405161023d9190612389565b60405180910390f35b34801561025257600080fd5b5061026d600480360381019061026891906123d0565b61084a565b005b34801561027b57600080fd5b50610284610a33565b6040516102919190612389565b60405180910390f35b3480156102a657600080fd5b506102af610a57565b6040516102bc919061241f565b60405180910390f35b3480156102d157600080fd5b506102ec60048036038101906102e7919061243a565b610a7b565b005b3480156102fa57600080fd5b50610315600480360381019061031091906125c2565b610e7b565b60405161032291906122c3565b60405180910390f35b34801561033757600080fd5b50610352600480360381019061034d919061231b565b610ed7565b60405161035f9190612627565b60405180910390f35b34801561037457600080fd5b5061038f600480360381019061038a919061231b565b610ef7565b60405161039c9190612627565b60405180910390f35b3480156103b157600080fd5b506103ba610f17565b005b3480156103c857600080fd5b506103e360048036038101906103de9190612642565b610f80565b6040516103f0919061241f565b60405180910390f35b34801561040557600080fd5b50610420600480360381019061041b919061243a565b610f98565b005b34801561042e57600080fd5b506104496004803603810190610444919061231b565b6110d0565b6040516104569190612389565b60405180910390f35b34801561046b57600080fd5b506104866004803603810190610481919061231b565b611103565b6040516104939190612389565b60405180910390f35b3480156104a857600080fd5b506104c360048036038101906104be9190612642565b611140565b6040516104d0919061241f565b60405180910390f35b3480156104e557600080fd5b5061050060048036038101906104fb9190612642565b611158565b60405161050d919061241f565b60405180910390f35b34801561052257600080fd5b5061052b6111a1565b60405161053891906122c3565b60405180910390f35b34801561054d57600080fd5b506105686004803603810190610563919061269b565b61122f565b005b34801561057657600080fd5b50610591600480360381019061058c919061277c565b61132c565b005b34801561059f57600080fd5b506105ba60048036038101906105b5919061231b565b611467565b6040516105c791906122c3565b60405180910390f35b3480156105dc57600080fd5b506105f760048036038101906105f29190612642565b6116df565b604051610604919061220f565b60405180910390f35b34801561061957600080fd5b50610634600480360381019061062f919061231b565b6116ff565b6040516106419190612389565b60405180910390f35b34801561065657600080fd5b50610671600480360381019061066c919061282b565b611732565b005b34801561067f57600080fd5b50610688611795565b604051610695919061241f565b60405180910390f35b6106b860048036038101906106b3919061287e565b61179b565b005b3480156106c657600080fd5b506106e160048036038101906106dc91906128be565b611a66565b6040516106ee919061220f565b60405180910390f35b60006301ffc9a760e01b827bffffffffffffffffffffffffffffffffffffffffffffffffffffffff1916148061075257506380ac58cd60e01b827bffffffffffffffffffffffffffffffffffffffffffffffffffffffff1916145b806107825750635b5e139f60e01b827bffffffffffffffffffffffffffffffffffffffffffffffffffffffff1916145b9050919050565b600080546107969061292d565b80601f01602080910402602001604051908101604052809291908181526020018280546107c29061292d565b801561080f5780601f106107e45761010080835404028352916020019161080f565b820191906000526020600020905b8154815290600101906020018083116107f257829003601f168201915b505050505081565b60046020528060005260406000206000915054906101000a900473ffffffffffffffffffffffffffffffffffffffff1681565b60006003600083815260200190815260200160002060009054906101000a900473ffffffffffffffffffffffffffffffffffffffff1690508073ffffffffffffffffffffffffffffffffffffffff163373ffffffffffffffffffffffffffffffffffffffff1614806109425750600560008273ffffffffffffffffffffffffffffffffffffffff1673ffffffffffffffffffffffffffffffffffffffff16815260200190815260200160002060003373ffffffffffffffffffffffffffffffffffffffff1673ffffffffffffffffffffffffffffffffffffffff16815260200190815260200160002060009054906101000a900460ff165b610981576040517f08c379a0000000000000000000000000000000000000000000000000000000008152600401610978906129ab565b60405180910390fd5b826004600084815260200190815260200160002060006101000a81548173ffffffffffffffffffffffffffffffffffffffff021916908373ffffffffffffffffffffffffffffffffffffffff160217905550818373ffffffffffffffffffffffffffffffffffffffff168273ffffffffffffffffffffffffffffffffffffffff167f8c5be1e5ebec7d5bd14f71427d1e84f3dd0314c0f7b2291e5b200ac8c7c3b92560405160405180910390a4505050565b7f000000000000000000000000000000000000000000000000000000000000000081565b7f000000000000000000000000000000000000000000000000000000000000000081565b6003600082815260200190815260200160002060009054906101000a900473ffffffffffffffffffffffffffffffffffffffff1673ffffffffffffffffffffffffffffffffffffffff168373ffffffffffffffffffffffffffffffffffffffff1614610b1c576040517f08c379a0000000000000000000000000000000000000000000000000000000008152600401610b1390612a17565b60405180910390fd5b600073ffffffffffffffffffffffffffffffffffffffff168273ffffffffffffffffffffffffffffffffffffffff161415610b8c576040517f08c379a0000000000000000000000000000000000000000000000000000000008152600401610b8390612a83565b60405180910390fd5b8273ffffffffffffffffffffffffffffffffffffffff163373ffffffffffffffffffffffffffffffffffffffff161480610c4c5750600560008473ffffffffffffffffffffffffffffffffffffffff1673ffffffffffffffffffffffffffffffffffffffff16815260200190815260200160002060003373ffffffffffffffffffffffffffffffffffffffff1673ffffffffffffffffffffffffffffffffffffffff16815260200190815260200160002060009054906101000a900460ff165b80610cb557506004600082815260200190815260200160002060009054906101000a900473ffffffffffffffffffffffffffffffffffffffff1673ffffffffffffffffffffffffffffffffffffffff163373ffffffffffffffffffffffffffffffffffffffff16145b610cf4576040517f08c379a0000000000000000000000000000000000000000000000000000000008152600401610ceb906129ab565b60405180910390fd5b600260008473ffffffffffffffffffffffffffffffffffffffff1673ffffffffffffffffffffffffffffffffffffffff1681526020019081526020016000206000815480929190600190039190505550600260008373ffffffffffffffffffffffffffffffffffffffff1673ffffffffffffffffffffffffffffffffffffffff16815260200190815260200160002060008154809291906001019190505550816003600083815260200190815260200160002060006101000a81548173ffffffffffffffffffffffffffffffffffffffff021916908373ffffffffffffffffffffffffffffffffffffffff1602179055506004600082815260200190815260200160002060006101000a81549073ffffffffffffffffffffffffffffffffffffffff0219169055808273ffffffffffffffffffffffffffffffffffffffff168473ffffffffffffffffffffffffffffffffffffffff167fddf252ad1be2c89b69c2b068fc378daa952ba7f163c4a11628f55a4df523b3ef60405160405180910390a4505050565b60606000610ea783604051602001610e939190612adf565b604051602081830303815290604052611a95565b9050600081604051602001610ebc9190612adf565b60405160208183030381529060405290508092505050919050565b600a6020528060005260406000206000915054906101000a900460000b81565b600b6020528060005260406000206000915054906101000a900460000b81565b7f000000000000000000000000000000000000000000000000000000000000000073ffffffffffffffffffffffffffffffffffffffff166108fc479081150290604051600060405180830381858888f19350505050158015610f7d573d6000803e3d6000fd5b50565b60086020528060005260406000206000915090505481565b610fa3838383610a7b565b60008273ffffffffffffffffffffffffffffffffffffffff163b148061108c575063150b7a0260e01b7bffffffffffffffffffffffffffffffffffffffffffffffffffffffff19168273ffffffffffffffffffffffffffffffffffffffff1663150b7a023386856040518463ffffffff1660e01b815260040161102893929190612b2d565b6020604051808303816000875af1158015611047573d6000803e3d6000fd5b505050506040513d601f19601f8201168201806040525081019061106b9190612b8c565b7bffffffffffffffffffffffffffffffffffffffffffffffffffffffff1916145b6110cb576040517f08c379a00000000000000000000000000000000000000000000000000000000081526004016110c290612c05565b60405180910390fd5b505050565b60036020528060005260406000206000915054906101000a900473ffffffffffffffffffffffffffffffffffffffff1681565b60006009600083815260200190815260200160002060009054906101000a900473ffffffffffffffffffffffffffffffffffffffff169050919050565b60026020528060005260406000206000915090505481565b6000600860008373ffffffffffffffffffffffffffffffffffffffff1673ffffffffffffffffffffffffffffffffffffffff168152602001908152602001600020549050919050565b600180546111ae9061292d565b80601f01602080910402602001604051908101604052809291908181526020018280546111da9061292d565b80156112275780601f106111fc57610100808354040283529160200191611227565b820191906000526020600020905b81548152906001019060200180831161120a57829003601f168201915b505050505081565b80600560003373ffffffffffffffffffffffffffffffffffffffff1673ffffffffffffffffffffffffffffffffffffffff16815260200190815260200160002060008473ffffffffffffffffffffffffffffffffffffffff1673ffffffffffffffffffffffffffffffffffffffff16815260200190815260200160002060006101000a81548160ff0219169083151502179055508173ffffffffffffffffffffffffffffffffffffffff163373ffffffffffffffffffffffffffffffffffffffff167f17307eab39ab6107e8899845ad3d59bd9653f200f220920489ca2b5937696c3183604051611320919061220f565b60405180910390a35050565b611337848484610a7b565b60008373ffffffffffffffffffffffffffffffffffffffff163b1480611422575063150b7a0260e01b7bffffffffffffffffffffffffffffffffffffffffffffffffffffffff19168373ffffffffffffffffffffffffffffffffffffffff1663150b7a02338786866040518563ffffffff1660e01b81526004016113be9493929190612c69565b6020604051808303816000875af11580156113dd573d6000803e3d6000fd5b505050506040513d601f19601f820116820180604052508101906114019190612b8c565b7bffffffffffffffffffffffffffffffffffffffffffffffffffffffff1916145b611461576040517f08c379a000000000000000000000000000000000000000000000000000000000815260040161145890612c05565b60405180910390fd5b50505050565b6060600061147442611c34565b9050600061148142611c68565b9050600061148e42611c97565b90506000600c6006600b600089815260200190815260200160002060009054906101000a900460000b60000b856114c59190612cee565b6114cf9190612d82565b6114d99190612ec8565b600c610168603c600b60008b815260200190815260200160002060009054906101000a900460000b61150b9190612f32565b60000b600a60008b815260200190815260200160002060009054906101000a900460000b60000b8861153d9190612cee565b6115479190612cee565b6115519190612d82565b61155b9190612ec8565b6115659190612cee565b90506000603c6006846115789190612d82565b6115829190612ec8565b603c610168600b60008b815260200190815260200160002060009054906101000a900460000b60000b876115b69190612cee565b6115c09190612d82565b6115ca9190612ec8565b6115d49190612cee565b905060006115e183611cb0565b905060006115ee83611cb0565b9050600081836040516020016116059291906131b0565b6040516020818303038152906040529050600060405180610b000160405280610acf8152602001613734610acf9139826040518061060001604052806105d781526020016142036105d79139604051602001611663939291906131f5565b6040516020818303038152906040529050600061167f82610e7b565b905060006116ab826040516020016116979190613356565b604051602081830303815290604052611a95565b9050806040516020016116be91906133cf565b6040516020818303038152906040529b505050505050505050505050919050565b60076020528060005260406000206000915054906101000a900460ff1681565b60096020528060005260406000206000915054906101000a900473ffffffffffffffffffffffffffffffffffffffff1681565b82600a600083815260200190815260200160002060006101000a81548160ff021916908360000b60ff16021790555081600b600083815260200190815260200160002060006101000a81548160ff021916908360000b60ff160217905550505050565b60065481565b7f00000000000000000000000000000000000000000000000000000000000000003410156117fe576040517f08c379a00000000000000000000000000000000000000000000000000000000081526004016117f59061343d565b60405180910390fd5b60001515600760003373ffffffffffffffffffffffffffffffffffffffff1673ffffffffffffffffffffffffffffffffffffffff16815260200190815260200160002060009054906101000a900460ff16151514611891576040517f08c379a0000000000000000000000000000000000000000000000000000000008152600401611888906134a9565b60405180910390fd5b61189d33600654611e11565b6118aa8282600654611732565b6001600760003373ffffffffffffffffffffffffffffffffffffffff1673ffffffffffffffffffffffffffffffffffffffff16815260200190815260200160002060006101000a81548160ff021916908315150217905550600654600860003373ffffffffffffffffffffffffffffffffffffffff1673ffffffffffffffffffffffffffffffffffffffff168152602001908152602001600020819055503360096000600654815260200190815260200160002060006101000a81548173ffffffffffffffffffffffffffffffffffffffff021916908373ffffffffffffffffffffffffffffffffffffffff1602179055506006547f8473e948bcf25e455d9d6476037e3b847d78f2411a8481e70d546afce6a7579160405160405180910390a260016006546119da91906134c9565b60068190555060007f000000000000000000000000000000000000000000000000000000000000000034611a0e919061351f565b90506000811115611a61573373ffffffffffffffffffffffffffffffffffffffff166108fc829081150290604051600060405180830381858888f19350505050158015611a5f573d6000803e3d6000fd5b505b505050565b60056020528160005260406000206020528060005260406000206000915091509054906101000a900460ff1681565b606060006040518060600160405280604081526020016136f46040913990506000835190506000811415611adc576040518060200160405280600081525092505050611c2f565b60006003600283611aed91906134c9565b611af79190613553565b6004611b039190613584565b90506000602082611b1491906134c9565b67ffffffffffffffff811115611b2d57611b2c612497565b5b6040519080825280601f01601f191660200182016040528015611b5f5781602001600182028036833780820191505090505b5090506000849050600181016020830160005b86811015611beb5760038101905062ffffff818b015116603f8160121c168401518060081b905060ff603f83600c1c1686015116810190508060081b905060ff603f8360061c1686015116810190508060081b905060ff603f831686015116810190508060e01b90508084526004840193505050611b72565b506003860660018114611c055760028114611c1557611c20565b613d3d60f01b6002830352611c20565b603d60f81b60018303525b50848452505081955050505050505b919050565b6000806201518063ffffffff1683611c4c91906135de565b9050610e1061ffff1681611c609190613553565b915050919050565b600080610e1061ffff1683611c7d91906135de565b9050603c60ff1681611c8f9190613553565b915050919050565b6000603c60ff1682611ca991906135de565b9050919050565b60606000821415611cf8576040518060400160405280600181526020017f30000000000000000000000000000000000000000000000000000000000000008152509050611e0c565b600082905060005b60008214611d2a578080611d139061360f565b915050600a82611d239190613553565b9150611d00565b60008167ffffffffffffffff811115611d4657611d45612497565b5b6040519080825280601f01601f191660200182016040528015611d785781602001600182028036833780820191505090505b5090505b60008514611e0557600182611d91919061351f565b9150600a85611da091906135de565b6030611dac91906134c9565b60f81b818381518110611dc257611dc1613658565b5b60200101907effffffffffffffffffffffffffffffffffffffffffffffffffffffffffffff1916908160001a905350600a85611dfe9190613553565b9450611d7c565b8093505050505b919050565b611e1b8282611f48565b60008273ffffffffffffffffffffffffffffffffffffffff163b1480611f05575063150b7a0260e01b7bffffffffffffffffffffffffffffffffffffffffffffffffffffffff19168273ffffffffffffffffffffffffffffffffffffffff1663150b7a02336000856040518463ffffffff1660e01b8152600401611ea193929190612b2d565b6020604051808303816000875af1158015611ec0573d6000803e3d6000fd5b505050506040513d601f19601f82011682018060405250810190611ee49190612b8c565b7bffffffffffffffffffffffffffffffffffffffffffffffffffffffff1916145b611f44576040517f08c379a0000000000000000000000000000000000000000000000000000000008152600401611f3b90612c05565b60405180910390fd5b5050565b600073ffffffffffffffffffffffffffffffffffffffff168273ffffffffffffffffffffffffffffffffffffffff161415611fb8576040517f08c379a0000000000000000000000000000000000000000000000000000000008152600401611faf90612a83565b60405180910390fd5b600073ffffffffffffffffffffffffffffffffffffffff166003600083815260200190815260200160002060009054906101000a900473ffffffffffffffffffffffffffffffffffffffff1673ffffffffffffffffffffffffffffffffffffffff161461205a576040517f08c379a0000000000000000000000000000000000000000000000000000000008152600401612051906136d3565b60405180910390fd5b600260008373ffffffffffffffffffffffffffffffffffffffff1673ffffffffffffffffffffffffffffffffffffffff16815260200190815260200160002060008154809291906001019190505550816003600083815260200190815260200160002060006101000a81548173ffffffffffffffffffffffffffffffffffffffff021916908373ffffffffffffffffffffffffffffffffffffffff160217905550808273ffffffffffffffffffffffffffffffffffffffff16600073ffffffffffffffffffffffffffffffffffffffff167fddf252ad1be2c89b69c2b068fc378daa952ba7f163c4a11628f55a4df523b3ef60405160405180910390a45050565b6000604051905090565b600080fd5b600080fd5b60007fffffffff0000000000000000000000000000000000000000000000000000000082169050919050565b6121a48161216f565b81146121af57600080fd5b50565b6000813590506121c18161219b565b92915050565b6000602082840312156121dd576121dc612165565b5b60006121eb848285016121b2565b91505092915050565b60008115159050919050565b612209816121f4565b82525050565b60006020820190506122246000830184612200565b92915050565b600081519050919050565b600082825260208201905092915050565b60005b83811015612264578082015181840152602081019050612249565b83811115612273576000848401525b50505050565b6000601f19601f8301169050919050565b60006122958261222a565b61229f8185612235565b93506122af818560208601612246565b6122b881612279565b840191505092915050565b600060208201905081810360008301526122dd818461228a565b905092915050565b6000819050919050565b6122f8816122e5565b811461230357600080fd5b50565b600081359050612315816122ef565b92915050565b60006020828403121561233157612330612165565b5b600061233f84828501612306565b91505092915050565b600073ffffffffffffffffffffffffffffffffffffffff82169050919050565b600061237382612348565b9050919050565b61238381612368565b82525050565b600060208201905061239e600083018461237a565b92915050565b6123ad81612368565b81146123b857600080fd5b50565b6000813590506123ca816123a4565b92915050565b600080604083850312156123e7576123e6612165565b5b60006123f5858286016123bb565b925050602061240685828601612306565b9150509250929050565b612419816122e5565b82525050565b60006020820190506124346000830184612410565b92915050565b60008060006060848603121561245357612452612165565b5b6000612461868287016123bb565b9350506020612472868287016123bb565b925050604061248386828701612306565b9150509250925092565b600080fd5b600080fd5b7f4e487b7100000000000000000000000000000000000000000000000000000000600052604160045260246000fd5b6124cf82612279565b810181811067ffffffffffffffff821117156124ee576124ed612497565b5b80604052505050565b600061250161215b565b905061250d82826124c6565b919050565b600067ffffffffffffffff82111561252d5761252c612497565b5b61253682612279565b9050602081019050919050565b82818337600083830152505050565b600061256561256084612512565b6124f7565b90508281526020810184848401111561258157612580612492565b5b61258c848285612543565b509392505050565b600082601f8301126125a9576125a861248d565b5b81356125b9848260208601612552565b91505092915050565b6000602082840312156125d8576125d7612165565b5b600082013567ffffffffffffffff8111156125f6576125f561216a565b5b61260284828501612594565b91505092915050565b60008160000b9050919050565b6126218161260b565b82525050565b600060208201905061263c6000830184612618565b92915050565b60006020828403121561265857612657612165565b5b6000612666848285016123bb565b91505092915050565b612678816121f4565b811461268357600080fd5b50565b6000813590506126958161266f565b92915050565b600080604083850312156126b2576126b1612165565b5b60006126c0858286016123bb565b92505060206126d185828601612686565b9150509250929050565b600067ffffffffffffffff8211156126f6576126f5612497565b5b6126ff82612279565b9050602081019050919050565b600061271f61271a846126db565b6124f7565b90508281526020810184848401111561273b5761273a612492565b5b612746848285612543565b509392505050565b600082601f8301126127635761276261248d565b5b813561277384826020860161270c565b91505092915050565b6000806000806080858703121561279657612795612165565b5b60006127a4878288016123bb565b94505060206127b5878288016123bb565b93505060406127c687828801612306565b925050606085013567ffffffffffffffff8111156127e7576127e661216a565b5b6127f38782880161274e565b91505092959194509250565b6128088161260b565b811461281357600080fd5b50565b600081359050612825816127ff565b92915050565b60008060006060848603121561284457612843612165565b5b600061285286828701612816565b935050602061286386828701612816565b925050604061287486828701612306565b9150509250925092565b6000806040838503121561289557612894612165565b5b60006128a385828601612816565b92505060206128b485828601612816565b9150509250929050565b600080604083850312156128d5576128d4612165565b5b60006128e3858286016123bb565b92505060206128f4858286016123bb565b9150509250929050565b7f4e487b7100000000000000000000000000000000000000000000000000000000600052602260045260246000fd5b6000600282049050600182168061294557607f821691505b60208210811415612959576129586128fe565b5b50919050565b7f4e4f545f415554484f52495a4544000000000000000000000000000000000000600082015250565b6000612995600e83612235565b91506129a08261295f565b602082019050919050565b600060208201905081810360008301526129c481612988565b9050919050565b7f57524f4e475f46524f4d00000000000000000000000000000000000000000000600082015250565b6000612a01600a83612235565b9150612a0c826129cb565b602082019050919050565b60006020820190508181036000830152612a30816129f4565b9050919050565b7f494e56414c49445f524543495049454e54000000000000000000000000000000600082015250565b6000612a6d601183612235565b9150612a7882612a37565b602082019050919050565b60006020820190508181036000830152612a9c81612a60565b9050919050565b600081905092915050565b6000612ab98261222a565b612ac38185612aa3565b9350612ad3818560208601612246565b80840191505092915050565b6000612aeb8284612aae565b915081905092915050565b600082825260208201905092915050565b50565b6000612b17600083612af6565b9150612b2282612b07565b600082019050919050565b6000608082019050612b42600083018661237a565b612b4f602083018561237a565b612b5c6040830184612410565b8181036060830152612b6d81612b0a565b9050949350505050565b600081519050612b868161219b565b92915050565b600060208284031215612ba257612ba1612165565b5b6000612bb084828501612b77565b91505092915050565b7f554e534146455f524543495049454e5400000000000000000000000000000000600082015250565b6000612bef601083612235565b9150612bfa82612bb9565b602082019050919050565b60006020820190508181036000830152612c1e81612be2565b9050919050565b600081519050919050565b6000612c3b82612c25565b612c458185612af6565b9350612c55818560208601612246565b612c5e81612279565b840191505092915050565b6000608082019050612c7e600083018761237a565b612c8b602083018661237a565b612c986040830185612410565b8181036060830152612caa8184612c30565b905095945050505050565b6000819050919050565b7f4e487b7100000000000000000000000000000000000000000000000000000000600052601160045260246000fd5b6000612cf982612cb5565b9150612d0483612cb5565b9250817f7fffffffffffffffffffffffffffffffffffffffffffffffffffffffffffffff03831360008312151615612d3f57612d3e612cbf565b5b817f8000000000000000000000000000000000000000000000000000000000000000038312600083121615612d7757612d76612cbf565b5b828201905092915050565b6000612d8d82612cb5565b9150612d9883612cb5565b9250827f7fffffffffffffffffffffffffffffffffffffffffffffffffffffffffffffff0482116000841360008413161615612dd757612dd6612cbf565b5b817f80000000000000000000000000000000000000000000000000000000000000000583126000841260008413161615612e1457612e13612cbf565b5b827f80000000000000000000000000000000000000000000000000000000000000000582126000841360008412161615612e5157612e50612cbf565b5b827f7fffffffffffffffffffffffffffffffffffffffffffffffffffffffffffffff0582126000841260008412161615612e8e57612e8d612cbf565b5b828202905092915050565b7f4e487b7100000000000000000000000000000000000000000000000000000000600052601260045260246000fd5b6000612ed382612cb5565b9150612ede83612cb5565b925082612eee57612eed612e99565b5b600160000383147f800000000000000000000000000000000000000000000000000000000000000083141615612f2757612f26612cbf565b5b828205905092915050565b6000612f3d8261260b565b9150612f488361260b565b925082612f5857612f57612e99565b5b600160000383147fffffffffffffffffffffffffffffffffffffffffffffffffffffffffffffff8083141615612f9157612f90612cbf565b5b828205905092915050565b7f203c672069643d226d696e75746522207472616e73666f726d203d2022726f7460008201527f6174652800000000000000000000000000000000000000000000000000000000602082015250565b6000612ff8602483612aa3565b915061300382612f9c565b602482019050919050565b7f202029223e2020202020203c7061746820636c6173733d226d696e7574652d6160008201527f726d2220643d224d3230302032303056373822202f3e2020202020203c63697260208201527f636c6520636c6173733d2273697a696e672d626f78222063783d22323030222060408201527f63793d223230302220723d2231333022202f3e202020203c2f673e202020203c60608201527f672069643d22686f757222207472616e73666f726d203d2022726f7461746528608082015250565b60006130dc60a083612aa3565b91506130e78261300e565b60a082019050919050565b7f202029223e2020202020203c7061746820636c6173733d22686f75722d61726d60008201527f2220643d224d323030203230305631343022202f3e2020202020203c6369726360208201527f6c6520636c6173733d2273697a696e672d626f78222063783d2232303022206360408201527f793d223230302220723d2231333022202f3e202020203c2f673e202000000000606082015250565b600061319a607c83612aa3565b91506131a5826130f2565b607c82019050919050565b60006131bb82612feb565b91506131c78285612aae565b91506131d2826130cf565b91506131de8284612aae565b91506131e98261318d565b91508190509392505050565b60006132018286612aae565b915061320d8285612aae565b91506132198284612aae565b9150819050949350505050565b7f7b226e616d65223a20224d6f6d656e74204e4654222c2022646573637269707460008201527f696f6e223a202246756c6c79206f6e2d636861696e20636c6f636b204e46542060208201527f746861742073686f777320796f75207468652063757272656e742074696d652e60408201527f222c2022696d616765223a2022646174613a696d6167652f7376672b786d6c3b60608201527f6261736536342c00000000000000000000000000000000000000000000000000608082015250565b60006132f4608783612aa3565b91506132ff82613226565b608782019050919050565b7f227d000000000000000000000000000000000000000000000000000000000000600082015250565b6000613340600283612aa3565b915061334b8261330a565b600282019050919050565b6000613361826132e7565b915061336d8284612aae565b915061337882613333565b915081905092915050565b7f646174613a6170706c69636174696f6e2f6a736f6e3b6261736536342c000000600082015250565b60006133b9601d83612aa3565b91506133c482613383565b601d82019050919050565b60006133da826133ac565b91506133e68284612aae565b915081905092915050565b7f496e73756666696369656e74207061796d656e74000000000000000000000000600082015250565b6000613427601483612235565b9150613432826133f1565b602082019050919050565b600060208201905081810360008301526134568161341a565b9050919050565b7f416c726561647920436c61696d65640000000000000000000000000000000000600082015250565b6000613493600f83612235565b915061349e8261345d565b602082019050919050565b600060208201905081810360008301526134c281613486565b9050919050565b60006134d4826122e5565b91506134df836122e5565b9250827fffffffffffffffffffffffffffffffffffffffffffffffffffffffffffffffff0382111561351457613513612cbf565b5b828201905092915050565b600061352a826122e5565b9150613535836122e5565b92508282101561354857613547612cbf565b5b828203905092915050565b600061355e826122e5565b9150613569836122e5565b92508261357957613578612e99565b5b828204905092915050565b600061358f826122e5565b915061359a836122e5565b9250817fffffffffffffffffffffffffffffffffffffffffffffffffffffffffffffffff04831182151516156135d3576135d2612cbf565b5b828202905092915050565b60006135e9826122e5565b91506135f4836122e5565b92508261360457613603612e99565b5b828206905092915050565b600061361a826122e5565b91507fffffffffffffffffffffffffffffffffffffffffffffffffffffffffffffffff82141561364d5761364c612cbf565b5b600182019050919050565b7f4e487b7100000000000000000000000000000000000000000000000000000000600052603260045260246000fd5b7f414c52454144595f4d494e544544000000000000000000000000000000000000600082015250565b60006136bd600e83612235565b91506136c882613687565b602082019050919050565b600060208201905081810360008301526136ec816136b0565b905091905056fe4142434445464748494a4b4c4d4e4f505152535455565758595a6162636465666768696a6b6c6d6e6f707172737475767778797a303132333435363738392b2f203c7376672077696474683d2234303022206865696768743d22343030222076696577426f783d223020302034303020343030222066696c6c3d226e6f6e652220786d6c6e733d22687474703a2f2f7777772e77332e6f72672f323030302f737667223e202020203c6465663e2020202020203c7374796c653e2020202020202e6d696e7574652d61726d207b202020202020202066696c6c3a206e6f6e653b20202020202020207374726f6b653a20234133413341333b20202020202020207374726f6b652d77696474683a20363b20202020202020207374726f6b652d6d697465726c696d69743a20383b2020202020207d2020202020202e686f75722d61726d207b202020202020202066696c6c3a206e6f6e653b20202020202020207374726f6b653a20236666663b20202020202020207374726f6b652d77696474683a20363b20202020202020207374726f6b652d6d697465726c696d69743a20383b2020202020207d202020202020236d696e7574652c23686f7572207b20202020202020207472616e73666f726d2d6f726967696e3a2032303070782032303070783b2020202020207d202020203c2f7374796c653e202020203c2f6465663e202020203c726563742077696474683d2234303022206865696768743d22343030222066696c6c3d22776869746522202f3e202020203c636972636c652063783d22323030222063793d223230302220723d2231343722207374726f6b653d22626c61636b22207374726f6b652d77696474683d223622202f3e202020203c636972636c652063783d22323030222063793d223230302220723d22313435222066696c6c3d22626c61636b22207374726f6b653d222333393339333922207374726f6b652d77696474683d223222202f3e202020203c6d61736b2069643d226d61736b305f375f363122207374796c653d226d61736b2d747970653a616c70686122206d61736b556e6974733d227573657253706163654f6e5573652220783d2236312220793d223631222077696474683d2232373822206865696768743d22323738223e2020202020203c7265637420783d223139382220793d223631222077696474683d223422206865696768743d223338222066696c6c3d222343344334433422202f3e2020202020203c7265637420783d223139382220793d22333031222077696474683d223422206865696768743d223338222066696c6c3d222343344334433422202f3e2020202020203c7265637420783d2236312220793d22323032222077696474683d223422206865696768743d22333822207472616e73666f726d3d22726f74617465282d39302036312032303229222066696c6c3d222343344334433422202f3e2020202020203c7265637420783d223330312220793d22323032222077696474683d223422206865696768743d22333822207472616e73666f726d3d22726f74617465282d3930203330312032303229222066696c6c3d222343344334433422202f3e2020202020203c7265637420783d223133322e3233322220793d223332312e333738222077696474683d223422206865696768743d22333822207472616e73666f726d3d22726f74617465282d313530203133322e323332203332312e33373829222066696c6c3d222343344334433422202f3e2020202020203c7265637420783d223235322e3233322220793d223131332e353331222077696474683d223422206865696768743d22333822207472616e73666f726d3d22726f74617465282d313530203235322e323332203131332e35333129222066696c6c3d222343344334433422202f3e2020202020203c7265637420783d2238302e363232342220793d223237312e323332222077696474683d223422206865696768743d22333822207472616e73666f726d3d22726f74617465282d3132302038302e36323234203237312e32333229222066696c6c3d222343344334433422202f3e2020202020203c7265637420783d223238382e3436392220793d223135312e323332222077696474683d223422206865696768743d22333822207472616e73666f726d3d22726f74617465282d313230203238382e343639203135312e32333229222066696c6c3d222343344334433422202f3e2020202020203c7265637420783d2237382e363232342220793d223133322e323332222077696474683d223422206865696768743d22333822207472616e73666f726d3d22726f74617465282d36302037382e36323234203133322e32333229222066696c6c3d222343344334433422202f3e2020202020203c7265637420783d223238362e3436392220793d223235322e323332222077696474683d223422206865696768743d22333822207472616e73666f726d3d22726f74617465282d3630203238362e343639203235322e32333229222066696c6c3d222343344334433422202f3e2020202020203c7265637420783d223237312e3233322220793d223331392e333738222077696474683d223422206865696768743d22333822207472616e73666f726d3d22726f7461746528313530203237312e323332203331392e33373829222066696c6c3d222343344334433422202f3e2020202020203c7265637420783d223135312e3233322220793d223131312e353331222077696474683d223422206865696768743d22333822207472616e73666f726d3d22726f7461746528313530203135312e323332203131312e35333129222066696c6c3d222343344334433422202f3e202020203c2f6d61736b3e202020203c67206d61736b3d2275726c28236d61736b305f375f363129223e2020202020203c6d61736b2069643d226d61736b315f375f363122207374796c653d226d61736b2d747970653a616c70686122206d61736b556e6974733d227573657253706163654f6e5573652220783d2234352220793d223431222077696474683d2233323422206865696768743d22333136223e20202020202020203c7265637420783d2234352220793d223431222077696474683d2233323422206865696768743d22333136222066696c6c3d2275726c28237061696e74305f6c696e6561725f375f36312922202f3e2020202020203c2f6d61736b3e2020202020203c67206d61736b3d2275726c28236d61736b315f375f363129223e20202020202020203c7265637420783d2231332220793d2239222077696474683d2233383722206865696768743d22333539222066696c6c3d222346353834464622202f3e20202020202020203c672066696c7465723d2275726c282366696c746572305f665f375f363129223e202020202020202020203c636972636c652063783d2238322e35222063793d223131372e352220723d223131372e35222066696c6c3d222346463834434522202f3e20202020202020203c2f673e20202020202020203c672066696c7465723d2275726c282366696c746572315f665f375f363129223e202020202020202020203c636972636c652063783d223334392e35222063793d223233392e352220723d223131372e35222066696c6c3d222338344137464622202f3e20202020202020203c2f673e20202020202020203c672066696c7465723d2275726c282366696c746572325f665f375f363129223e202020202020202020203c636972636c652063783d223131332e35222063793d223334352e352220723d223131372e35222066696c6c3d222345303931393122202f3e20202020202020203c2f673e2020202020203c2f673e202020203c2f673e203c636972636c652063783d22323030222063793d223230302220723d2235222066696c6c3d22776869746522202f3e202020203c646566733e2020202020203c66696c7465722069643d2266696c746572305f665f375f36312220783d222d3133352220793d222d313030222077696474683d2234333522206865696768743d22343335222066696c746572556e6974733d227573657253706163654f6e557365222020202020202020636f6c6f722d696e746572706f6c6174696f6e2d66696c746572733d2273524742223e20202020202020203c6665466c6f6f6420666c6f6f642d6f7061636974793d22302220726573756c743d224261636b67726f756e64496d61676546697822202f3e20202020202020203c6665426c656e64206d6f64653d226e6f726d616c2220696e3d22536f75726365477261706869632220696e323d224261636b67726f756e64496d6167654669782220726573756c743d22736861706522202f3e20202020202020203c6665476175737369616e426c757220737464446576696174696f6e3d2235302220726573756c743d22656666656374315f666f726567726f756e64426c75725f375f363122202f3e2020202020203c2f66696c7465723e2020202020203c66696c7465722069643d2266696c746572315f665f375f36312220783d223133322220793d223232222077696474683d2234333522206865696768743d22343335222066696c746572556e6974733d227573657253706163654f6e557365222020202020202020636f6c6f722d696e746572706f6c6174696f6e2d66696c746572733d2273524742223e20202020202020203c6665466c6f6f6420666c6f6f642d6f7061636974793d22302220726573756c743d224261636b67726f756e64496d61676546697822202f3e20202020202020203c6665426c656e64206d6f64653d226e6f726d616c2220696e3d22536f75726365477261706869632220696e323d224261636b67726f756e64496d6167654669782220726573756c743d22736861706522202f3e20202020202020203c6665476175737369616e426c757220737464446576696174696f6e3d2235302220726573756c743d22656666656374315f666f726567726f756e64426c75725f375f363122202f3e2020202020203c2f66696c7465723e2020202020203c66696c7465722069643d2266696c746572325f665f375f36312220783d222d3130342220793d22313238222077696474683d2234333522206865696768743d22343335222066696c746572556e6974733d227573657253706163654f6e557365222020202020202020636f6c6f722d696e746572706f6c6174696f6e2d66696c746572733d2273524742223e20202020202020203c6665466c6f6f6420666c6f6f642d6f7061636974793d22302220726573756c743d224261636b67726f756e64496d61676546697822202f3e20202020202020203c6665426c656e64206d6f64653d226e6f726d616c2220696e3d22536f75726365477261706869632220696e323d224261636b67726f756e64496d6167654669782220726573756c743d22736861706522202f3e20202020202020203c6665476175737369616e426c757220737464446576696174696f6e3d2235302220726573756c743d22656666656374315f666f726567726f756e64426c75725f375f363122202f3e2020202020203c2f66696c7465723e2020202020203c6c696e6561724772616469656e742069643d227061696e74305f6c696e6561725f375f3631222078313d22323037222079313d223431222078323d22323037222079323d2233353722206772616469656e74556e6974733d227573657253706163654f6e557365223e20202020202020203c73746f702073746f702d636f6c6f723d222346463834434522202f3e20202020202020203c73746f70206f66667365743d2231222073746f702d636f6c6f723d222339323344464622202f3e2020202020203c2f6c696e6561724772616469656e743e202020203c2f646566733e20203c2f7376673ea26469706673582212201d7420c4f791342cf80b4629b2b0a8cb05ab296195c70d6fd970402a7660886564736f6c634300080a0033",
  "devdoc": {
    "kind": "dev",
    "methods": {},
    "version": 1
  },
  "userdoc": {
    "kind": "user",
    "methods": {},
    "version": 1
  },
  "storageLayout": {
    "storage": [
      {
        "astId": 231,
        "contract": "contracts/momentNFT.sol:momentNFT",
        "label": "name",
        "offset": 0,
        "slot": "0",
        "type": "t_string_storage"
      },
      {
        "astId": 233,
        "contract": "contracts/momentNFT.sol:momentNFT",
        "label": "symbol",
        "offset": 0,
        "slot": "1",
        "type": "t_string_storage"
      },
      {
        "astId": 244,
        "contract": "contracts/momentNFT.sol:momentNFT",
        "label": "balanceOf",
        "offset": 0,
        "slot": "2",
        "type": "t_mapping(t_address,t_uint256)"
      },
      {
        "astId": 248,
        "contract": "contracts/momentNFT.sol:momentNFT",
        "label": "ownerOf",
        "offset": 0,
        "slot": "3",
        "type": "t_mapping(t_uint256,t_address)"
      },
      {
        "astId": 252,
        "contract": "contracts/momentNFT.sol:momentNFT",
        "label": "getApproved",
        "offset": 0,
        "slot": "4",
        "type": "t_mapping(t_uint256,t_address)"
      },
      {
        "astId": 258,
        "contract": "contracts/momentNFT.sol:momentNFT",
        "label": "isApprovedForAll",
        "offset": 0,
        "slot": "5",
        "type": "t_mapping(t_address,t_mapping(t_address,t_bool))"
      },
      {
        "astId": 730,
        "contract": "contracts/momentNFT.sol:momentNFT",
        "label": "tokenCounter",
        "offset": 0,
        "slot": "6",
        "type": "t_uint256"
      },
      {
        "astId": 755,
        "contract": "contracts/momentNFT.sol:momentNFT",
        "label": "claimed",
        "offset": 0,
        "slot": "7",
        "type": "t_mapping(t_address,t_bool)"
      },
      {
        "astId": 759,
        "contract": "contracts/momentNFT.sol:momentNFT",
        "label": "userNFTTokenId",
        "offset": 0,
        "slot": "8",
        "type": "t_mapping(t_address,t_uint256)"
      },
      {
        "astId": 763,
        "contract": "contracts/momentNFT.sol:momentNFT",
        "label": "ownerOfNFTId",
        "offset": 0,
        "slot": "9",
        "type": "t_mapping(t_uint256,t_address)"
      },
      {
        "astId": 767,
        "contract": "contracts/momentNFT.sol:momentNFT",
        "label": "timeZoneHour",
        "offset": 0,
        "slot": "10",
        "type": "t_mapping(t_uint256,t_int8)"
      },
      {
        "astId": 771,
        "contract": "contracts/momentNFT.sol:momentNFT",
        "label": "timeZoneMin",
        "offset": 0,
        "slot": "11",
        "type": "t_mapping(t_uint256,t_int8)"
      }
    ],
    "types": {
      "t_address": {
        "encoding": "inplace",
        "label": "address",
        "numberOfBytes": "20"
      },
      "t_bool": {
        "encoding": "inplace",
        "label": "bool",
        "numberOfBytes": "1"
      },
      "t_int8": {
        "encoding": "inplace",
        "label": "int8",
        "numberOfBytes": "1"
      },
      "t_mapping(t_address,t_bool)": {
        "encoding": "mapping",
        "key": "t_address",
        "label": "mapping(address => bool)",
        "numberOfBytes": "32",
        "value": "t_bool"
      },
      "t_mapping(t_address,t_mapping(t_address,t_bool))": {
        "encoding": "mapping",
        "key": "t_address",
        "label": "mapping(address => mapping(address => bool))",
        "numberOfBytes": "32",
        "value": "t_mapping(t_address,t_bool)"
      },
      "t_mapping(t_address,t_uint256)": {
        "encoding": "mapping",
        "key": "t_address",
        "label": "mapping(address => uint256)",
        "numberOfBytes": "32",
        "value": "t_uint256"
      },
      "t_mapping(t_uint256,t_address)": {
        "encoding": "mapping",
        "key": "t_uint256",
        "label": "mapping(uint256 => address)",
        "numberOfBytes": "32",
        "value": "t_address"
      },
      "t_mapping(t_uint256,t_int8)": {
        "encoding": "mapping",
        "key": "t_uint256",
        "label": "mapping(uint256 => int8)",
        "numberOfBytes": "32",
        "value": "t_int8"
      },
      "t_string_storage": {
        "encoding": "bytes",
        "label": "string",
        "numberOfBytes": "32"
      },
      "t_uint256": {
        "encoding": "inplace",
        "label": "uint256",
        "numberOfBytes": "32"
      }
    }
  }
}