{
  "address": "0xD1b770B604EB33E4FF0bBa801cCA7062190438EA",
  "abi": [
    {
      "inputs": [],
      "stateMutability": "nonpayable",
      "type": "constructor"
    },
    {
      "anonymous": false,
      "inputs": [
        {
          "indexed": true,
          "internalType": "address",
          "name": "owner",
          "type": "address"
        },
        {
          "indexed": true,
          "internalType": "address",
          "name": "spender",
          "type": "address"
        },
        {
          "indexed": true,
          "internalType": "uint256",
          "name": "id",
          "type": "uint256"
        }
      ],
      "name": "Approval",
      "type": "event"
    },
    {
      "anonymous": false,
      "inputs": [
        {
          "indexed": true,
          "internalType": "address",
          "name": "owner",
          "type": "address"
        },
        {
          "indexed": true,
          "internalType": "address",
          "name": "operator",
          "type": "address"
        },
        {
          "indexed": false,
          "internalType": "bool",
          "name": "approved",
          "type": "bool"
        }
      ],
      "name": "ApprovalForAll",
      "type": "event"
    },
    {
      "anonymous": false,
      "inputs": [
        {
          "indexed": true,
          "internalType": "uint256",
          "name": "tokenId",
          "type": "uint256"
        }
      ],
      "name": "CreatedMomentNFT",
      "type": "event"
    },
    {
      "anonymous": false,
      "inputs": [
        {
          "indexed": true,
          "internalType": "address",
          "name": "from",
          "type": "address"
        },
        {
          "indexed": true,
          "internalType": "address",
          "name": "to",
          "type": "address"
        },
        {
          "indexed": true,
          "internalType": "uint256",
          "name": "id",
          "type": "uint256"
        }
      ],
      "name": "Transfer",
      "type": "event"
    },
    {
      "inputs": [
        {
          "internalType": "address",
          "name": "",
          "type": "address"
        }
      ],
      "name": "TokenIDOfAddress",
      "outputs": [
        {
          "internalType": "uint256",
          "name": "",
          "type": "uint256"
        }
      ],
      "stateMutability": "view",
      "type": "function"
    },
    {
      "inputs": [
        {
          "internalType": "address",
          "name": "spender",
          "type": "address"
        },
        {
          "internalType": "uint256",
          "name": "id",
          "type": "uint256"
        }
      ],
      "name": "approve",
      "outputs": [],
      "stateMutability": "nonpayable",
      "type": "function"
    },
    {
      "inputs": [
        {
          "internalType": "address",
          "name": "",
          "type": "address"
        }
      ],
      "name": "balanceOf",
      "outputs": [
        {
          "internalType": "uint256",
          "name": "",
          "type": "uint256"
        }
      ],
      "stateMutability": "view",
      "type": "function"
    },
    {
      "inputs": [],
      "name": "claimPrice",
      "outputs": [
        {
          "internalType": "uint256",
          "name": "",
          "type": "uint256"
        }
      ],
      "stateMutability": "view",
      "type": "function"
    },
    {
      "inputs": [
        {
          "internalType": "address",
          "name": "",
          "type": "address"
        }
      ],
      "name": "claimed",
      "outputs": [
        {
          "internalType": "bool",
          "name": "",
          "type": "bool"
        }
      ],
      "stateMutability": "view",
      "type": "function"
    },
    {
      "inputs": [
        {
          "internalType": "int8",
          "name": "_timeZoneHour",
          "type": "int8"
        },
        {
          "internalType": "int8",
          "name": "_timeZoneMin",
          "type": "int8"
        }
      ],
      "name": "create",
      "outputs": [],
      "stateMutability": "payable",
      "type": "function"
    },
    {
      "inputs": [
        {
          "internalType": "uint256",
          "name": "",
          "type": "uint256"
        }
      ],
      "name": "getApproved",
      "outputs": [
        {
          "internalType": "address",
          "name": "",
          "type": "address"
        }
      ],
      "stateMutability": "view",
      "type": "function"
    },
    {
      "inputs": [
        {
          "internalType": "uint256",
          "name": "_id",
          "type": "uint256"
        }
      ],
      "name": "getTimeZone",
      "outputs": [
        {
          "internalType": "int8",
          "name": "UCThourOffset",
          "type": "int8"
        },
        {
          "internalType": "int8",
          "name": "UCTMinOffset",
          "type": "int8"
        }
      ],
      "stateMutability": "view",
      "type": "function"
    },
    {
      "inputs": [
        {
          "internalType": "address",
          "name": "",
          "type": "address"
        },
        {
          "internalType": "address",
          "name": "",
          "type": "address"
        }
      ],
      "name": "isApprovedForAll",
      "outputs": [
        {
          "internalType": "bool",
          "name": "",
          "type": "bool"
        }
      ],
      "stateMutability": "view",
      "type": "function"
    },
    {
      "inputs": [],
      "name": "name",
      "outputs": [
        {
          "internalType": "string",
          "name": "",
          "type": "string"
        }
      ],
      "stateMutability": "view",
      "type": "function"
    },
    {
      "inputs": [
        {
          "internalType": "uint256",
          "name": "",
          "type": "uint256"
        }
      ],
      "name": "ownerOf",
      "outputs": [
        {
          "internalType": "address",
          "name": "",
          "type": "address"
        }
      ],
      "stateMutability": "view",
      "type": "function"
    },
    {
      "inputs": [
        {
          "internalType": "address",
          "name": "_from",
          "type": "address"
        },
        {
          "internalType": "address",
          "name": "_to",
          "type": "address"
        },
        {
          "internalType": "uint256",
          "name": "_tokenId",
          "type": "uint256"
        }
      ],
      "name": "safeTransferFrom",
      "outputs": [],
      "stateMutability": "nonpayable",
      "type": "function"
    },
    {
      "inputs": [
        {
          "internalType": "address",
          "name": "from",
          "type": "address"
        },
        {
          "internalType": "address",
          "name": "to",
          "type": "address"
        },
        {
          "internalType": "uint256",
          "name": "id",
          "type": "uint256"
        },
        {
          "internalType": "bytes",
          "name": "data",
          "type": "bytes"
        }
      ],
      "name": "safeTransferFrom",
      "outputs": [],
      "stateMutability": "nonpayable",
      "type": "function"
    },
    {
      "inputs": [
        {
          "internalType": "address",
          "name": "operator",
          "type": "address"
        },
        {
          "internalType": "bool",
          "name": "approved",
          "type": "bool"
        }
      ],
      "name": "setApprovalForAll",
      "outputs": [],
      "stateMutability": "nonpayable",
      "type": "function"
    },
    {
      "inputs": [
        {
          "internalType": "int8",
          "name": "_timeZoneHour",
          "type": "int8"
        },
        {
          "internalType": "int8",
          "name": "_timeZoneMin",
          "type": "int8"
        },
        {
          "internalType": "uint256",
          "name": "_id",
          "type": "uint256"
        }
      ],
      "name": "setTimeZone",
      "outputs": [],
      "stateMutability": "nonpayable",
      "type": "function"
    },
    {
      "inputs": [
        {
          "internalType": "bytes4",
          "name": "interfaceId",
          "type": "bytes4"
        }
      ],
      "name": "supportsInterface",
      "outputs": [
        {
          "internalType": "bool",
          "name": "",
          "type": "bool"
        }
      ],
      "stateMutability": "view",
      "type": "function"
    },
    {
      "inputs": [],
      "name": "symbol",
      "outputs": [
        {
          "internalType": "string",
          "name": "",
          "type": "string"
        }
      ],
      "stateMutability": "view",
      "type": "function"
    },
    {
      "inputs": [
        {
          "internalType": "uint256",
          "name": "",
          "type": "uint256"
        }
      ],
      "name": "timeZoneHour",
      "outputs": [
        {
          "internalType": "int8",
          "name": "",
          "type": "int8"
        }
      ],
      "stateMutability": "view",
      "type": "function"
    },
    {
      "inputs": [
        {
          "internalType": "uint256",
          "name": "",
          "type": "uint256"
        }
      ],
      "name": "timeZoneMin",
      "outputs": [
        {
          "internalType": "int8",
          "name": "",
          "type": "int8"
        }
      ],
      "stateMutability": "view",
      "type": "function"
    },
    {
      "inputs": [],
      "name": "tokenCounter",
      "outputs": [
        {
          "internalType": "uint256",
          "name": "",
          "type": "uint256"
        }
      ],
      "stateMutability": "view",
      "type": "function"
    },
    {
      "inputs": [
        {
          "internalType": "uint256",
          "name": "_id",
          "type": "uint256"
        }
      ],
      "name": "tokenURI",
      "outputs": [
        {
          "internalType": "string",
          "name": "",
          "type": "string"
        }
      ],
      "stateMutability": "view",
      "type": "function"
    },
    {
      "inputs": [
        {
          "internalType": "address",
          "name": "_from",
          "type": "address"
        },
        {
          "internalType": "address",
          "name": "_to",
          "type": "address"
        },
        {
          "internalType": "uint256",
          "name": "_tokenId",
          "type": "uint256"
        }
      ],
      "name": "transferFrom",
      "outputs": [],
      "stateMutability": "nonpayable",
      "type": "function"
    },
    {
      "inputs": [],
      "name": "withdraw",
      "outputs": [],
      "stateMutability": "nonpayable",
      "type": "function"
    },
    {
      "inputs": [],
      "name": "withdrawAddress",
      "outputs": [
        {
          "internalType": "address",
          "name": "",
          "type": "address"
        }
      ],
      "stateMutability": "view",
      "type": "function"
    }
  ],
  "transactionHash": "0x227ff1599a52e61c8b9b4fa80897668e3f93fb7df7b8662b19cfba2461a228bc",
  "args": [],
  "numDeployments": 4,
  "solcInputHash": "4065d765bafe4042513c8b9bf4bb7157",
  "bytecode": "0x60c0604052670de0b6b3a764000060809081525073245e32dba4e30b483f618a3940309236aaebbbc573ffffffffffffffffffffffffffffffffffffffff1660a09073ffffffffffffffffffffffffffffffffffffffff168152503480156200006757600080fd5b506040518060400160405280600a81526020017f4d6f6d656e742d4e4654000000000000000000000000000000000000000000008152506040518060400160405280600a81526020017f4d6f6d656e742d4e4654000000000000000000000000000000000000000000008152508160009080519060200190620000ec92919062000116565b5080600190805190602001906200010592919062000116565b50505060006006819055506200022b565b8280546200012490620001f5565b90600052602060002090601f01602090048101928262000148576000855562000194565b82601f106200016357805160ff191683800117855562000194565b8280016001018555821562000194579182015b828111156200019357825182559160200191906001019062000176565b5b509050620001a39190620001a7565b5090565b5b80821115620001c2576000816000905550600101620001a8565b5090565b7f4e487b7100000000000000000000000000000000000000000000000000000000600052602260045260246000fd5b600060028204905060018216806200020e57607f821691505b60208210811415620002255762000224620001c6565b5b50919050565b60805160a0516141fc620002666000396000818161092e0152610a1701526000818161095201528181611194015261138701526141fc6000f3fe60806040526004361061014b5760003560e01c80636352211e116100b6578063c87b56dd1161006f578063c87b56dd146104c9578063c884ef8314610506578063ce9ecbd114610543578063d082e3811461056c578063db819ade14610597578063e985e9c5146105b35761014b565b80636352211e1461039557806370a08231146103d2578063821c18e21461040f57806395d89b411461044c578063a22cb46514610477578063b88d4fde146104a05761014b565b806323b872dd1161010857806323b872dd1461027457806328134e231461029d5780633af9e89c146102db5780633afbf251146103185780633ccfd60b1461035557806342842e0e1461036c5761014b565b806301ffc9a71461015057806306fdde031461018d578063081812fc146101b8578063095ea7b3146101f55780631581b6001461021e57806315d655c914610249575b600080fd5b34801561015c57600080fd5b5061017760048036038101906101729190611b8f565b6105f0565b6040516101849190611bd7565b60405180910390f35b34801561019957600080fd5b506101a2610682565b6040516101af9190611c8b565b60405180910390f35b3480156101c457600080fd5b506101df60048036038101906101da9190611ce3565b610710565b6040516101ec9190611d51565b60405180910390f35b34801561020157600080fd5b5061021c60048036038101906102179190611d98565b610743565b005b34801561022a57600080fd5b5061023361092c565b6040516102409190611d51565b60405180910390f35b34801561025557600080fd5b5061025e610950565b60405161026b9190611de7565b60405180910390f35b34801561028057600080fd5b5061029b60048036038101906102969190611e02565b610974565b005b3480156102a957600080fd5b506102c460048036038101906102bf9190611ce3565b610987565b6040516102d2929190611e71565b60405180910390f35b3480156102e757600080fd5b5061030260048036038101906102fd9190611ce3565b6109d5565b60405161030f9190611e9a565b60405180910390f35b34801561032457600080fd5b5061033f600480360381019061033a9190611ce3565b6109f5565b60405161034c9190611e9a565b60405180910390f35b34801561036157600080fd5b5061036a610a15565b005b34801561037857600080fd5b50610393600480360381019061038e9190611e02565b610a7e565b005b3480156103a157600080fd5b506103bc60048036038101906103b79190611ce3565b610a91565b6040516103c99190611d51565b60405180910390f35b3480156103de57600080fd5b506103f960048036038101906103f49190611eb5565b610ac4565b6040516104069190611de7565b60405180910390f35b34801561041b57600080fd5b5061043660048036038101906104319190611eb5565b610adc565b6040516104439190611de7565b60405180910390f35b34801561045857600080fd5b50610461610af4565b60405161046e9190611c8b565b60405180910390f35b34801561048357600080fd5b5061049e60048036038101906104999190611f0e565b610b82565b005b3480156104ac57600080fd5b506104c760048036038101906104c29190612083565b610c7f565b005b3480156104d557600080fd5b506104f060048036038101906104eb9190611ce3565b610dba565b6040516104fd9190611c8b565b60405180910390f35b34801561051257600080fd5b5061052d60048036038101906105289190611eb5565b611109565b60405161053a9190611bd7565b60405180910390f35b34801561054f57600080fd5b5061056a60048036038101906105659190612132565b611129565b005b34801561057857600080fd5b5061058161118c565b60405161058e9190611de7565b60405180910390f35b6105b160048036038101906105ac9190612185565b611192565b005b3480156105bf57600080fd5b506105da60048036038101906105d591906121c5565b611409565b6040516105e79190611bd7565b60405180910390f35b60006301ffc9a760e01b827bffffffffffffffffffffffffffffffffffffffffffffffffffffffff1916148061064b57506380ac58cd60e01b827bffffffffffffffffffffffffffffffffffffffffffffffffffffffff1916145b8061067b5750635b5e139f60e01b827bffffffffffffffffffffffffffffffffffffffffffffffffffffffff1916145b9050919050565b6000805461068f90612234565b80601f01602080910402602001604051908101604052809291908181526020018280546106bb90612234565b80156107085780601f106106dd57610100808354040283529160200191610708565b820191906000526020600020905b8154815290600101906020018083116106eb57829003601f168201915b505050505081565b60046020528060005260406000206000915054906101000a900473ffffffffffffffffffffffffffffffffffffffff1681565b60006003600083815260200190815260200160002060009054906101000a900473ffffffffffffffffffffffffffffffffffffffff1690508073ffffffffffffffffffffffffffffffffffffffff163373ffffffffffffffffffffffffffffffffffffffff16148061083b5750600560008273ffffffffffffffffffffffffffffffffffffffff1673ffffffffffffffffffffffffffffffffffffffff16815260200190815260200160002060003373ffffffffffffffffffffffffffffffffffffffff1673ffffffffffffffffffffffffffffffffffffffff16815260200190815260200160002060009054906101000a900460ff165b61087a576040517f08c379a0000000000000000000000000000000000000000000000000000000008152600401610871906122b2565b60405180910390fd5b826004600084815260200190815260200160002060006101000a81548173ffffffffffffffffffffffffffffffffffffffff021916908373ffffffffffffffffffffffffffffffffffffffff160217905550818373ffffffffffffffffffffffffffffffffffffffff168273ffffffffffffffffffffffffffffffffffffffff167f8c5be1e5ebec7d5bd14f71427d1e84f3dd0314c0f7b2291e5b200ac8c7c3b92560405160405180910390a4505050565b7f000000000000000000000000000000000000000000000000000000000000000081565b7f000000000000000000000000000000000000000000000000000000000000000081565b600260011461098257600080fd5b505050565b6000806008600084815260200190815260200160002060009054906101000a900460000b6009600085815260200190815260200160002060009054906101000a900460000b91509150915091565b60086020528060005260406000206000915054906101000a900460000b81565b60096020528060005260406000206000915054906101000a900460000b81565b7f000000000000000000000000000000000000000000000000000000000000000073ffffffffffffffffffffffffffffffffffffffff166108fc479081150290604051600060405180830381858888f19350505050158015610a7b573d6000803e3d6000fd5b50565b6002600114610a8c57600080fd5b505050565b60036020528060005260406000206000915054906101000a900473ffffffffffffffffffffffffffffffffffffffff1681565b60026020528060005260406000206000915090505481565b600a6020528060005260406000206000915090505481565b60018054610b0190612234565b80601f0160208091040260200160405190810160405280929190818152602001828054610b2d90612234565b8015610b7a5780601f10610b4f57610100808354040283529160200191610b7a565b820191906000526020600020905b815481529060010190602001808311610b5d57829003601f168201915b505050505081565b80600560003373ffffffffffffffffffffffffffffffffffffffff1673ffffffffffffffffffffffffffffffffffffffff16815260200190815260200160002060008473ffffffffffffffffffffffffffffffffffffffff1673ffffffffffffffffffffffffffffffffffffffff16815260200190815260200160002060006101000a81548160ff0219169083151502179055508173ffffffffffffffffffffffffffffffffffffffff163373ffffffffffffffffffffffffffffffffffffffff167f17307eab39ab6107e8899845ad3d59bd9653f200f220920489ca2b5937696c3183604051610c739190611bd7565b60405180910390a35050565b610c8a848484610974565b60008373ffffffffffffffffffffffffffffffffffffffff163b1480610d75575063150b7a0260e01b7bffffffffffffffffffffffffffffffffffffffffffffffffffffffff19168373ffffffffffffffffffffffffffffffffffffffff1663150b7a02338786866040518563ffffffff1660e01b8152600401610d119493929190612327565b6020604051808303816000875af1158015610d30573d6000803e3d6000fd5b505050506040513d601f19601f82011682018060405250810190610d549190612388565b7bffffffffffffffffffffffffffffffffffffffffffffffffffffffff1916145b610db4576040517f08c379a0000000000000000000000000000000000000000000000000000000008152600401610dab90612401565b60405180910390fd5b50505050565b60606000603c6009600085815260200190815260200160002060009054906101000a900460000b610deb919061247f565b60000b6008600085815260200190815260200160002060009054906101000a900460000b60000b610e1b42611438565b610e2591906124f3565b610e2f91906124f3565b90506000811215610e4a57806018610e4791906124f3565b90505b60006009600085815260200190815260200160002060009054906101000a900460000b60000b610e794261146c565b610e8391906124f3565b90506000610e904261149b565b90506000600c600684610ea39190612587565b610ead919061269e565b600c61016886610ebd9190612587565b610ec7919061269e565b610ed191906124f3565b90506000603c600684610ee49190612587565b610eee919061269e565b603c61016886610efe9190612587565b610f08919061269e565b610f1291906124f3565b90506000610f1f836114b4565b90506000610f2c836114b4565b90506000610f398a6114b4565b90506000610f71610f6c600860008e815260200190815260200160002060009054906101000a900460000b60000b611615565b6114b4565b905060606000600860008e815260200190815260200160002060009054906101000a900460000b60000b1315610fde576040518060400160405280600181526020017f2b000000000000000000000000000000000000000000000000000000000000008152509050611017565b6040518060400160405280600181526020017f2d0000000000000000000000000000000000000000000000000000000000000081525090505b6000848660405160200161102c929190612958565b6040516020818303038152906040529050600060405180610b000160405280610acf8152602001613121610acf9139826040518061060001604052806105d78152602001613bf06105d7913960405160200161108a9392919061299d565b604051602081830303815290604052905060006110d38685876110ac8661163a565b6040516020016110bf9493929190612b96565b60405160208183030381529060405261163a565b9050806040516020016110e69190612c4c565b6040516020818303038152906040529d5050505050505050505050505050919050565b60076020528060005260406000206000915054906101000a900460ff1681565b826008600083815260200190815260200160002060006101000a81548160ff021916908360000b60ff160217905550816009600083815260200190815260200160002060006101000a81548160ff021916908360000b60ff160217905550505050565b60065481565b7f00000000000000000000000000000000000000000000000000000000000000003410156111f5576040517f08c379a00000000000000000000000000000000000000000000000000000000081526004016111ec90612cba565b60405180910390fd5b60001515600760003373ffffffffffffffffffffffffffffffffffffffff1673ffffffffffffffffffffffffffffffffffffffff16815260200190815260200160002060009054906101000a900460ff16151514611288576040517f08c379a000000000000000000000000000000000000000000000000000000000815260040161127f90612d26565b60405180910390fd5b611294336006546117d9565b6112a18282600654611129565b6001600760003373ffffffffffffffffffffffffffffffffffffffff1673ffffffffffffffffffffffffffffffffffffffff16815260200190815260200160002060006101000a81548160ff021916908315150217905550600654600a60003373ffffffffffffffffffffffffffffffffffffffff1673ffffffffffffffffffffffffffffffffffffffff168152602001908152602001600020819055506006547f8473e948bcf25e455d9d6476037e3b847d78f2411a8481e70d546afce6a7579160405160405180910390a2600160065461137d9190612d46565b60068190555060007f0000000000000000000000000000000000000000000000000000000000000000346113b19190612d9c565b90506000811115611404573373ffffffffffffffffffffffffffffffffffffffff166108fc829081150290604051600060405180830381858888f19350505050158015611402573d6000803e3d6000fd5b505b505050565b60056020528160005260406000206020528060005260406000206000915091509054906101000a900460ff1681565b6000806201518063ffffffff16836114509190612dd0565b9050610e1061ffff16816114649190612e01565b915050919050565b600080610e1061ffff16836114819190612dd0565b9050603c60ff16816114939190612e01565b915050919050565b6000603c60ff16826114ad9190612dd0565b9050919050565b606060008214156114fc576040518060400160405280600181526020017f30000000000000000000000000000000000000000000000000000000000000008152509050611610565b600082905060005b6000821461152e57808061151790612e32565b915050600a826115279190612e01565b9150611504565b60008167ffffffffffffffff81111561154a57611549611f58565b5b6040519080825280601f01601f19166020018201604052801561157c5781602001600182028036833780820191505090505b5090505b60008514611609576001826115959190612d9c565b9150600a856115a49190612dd0565b60306115b09190612d46565b60f81b8183815181106115c6576115c5612e7b565b5b60200101907effffffffffffffffffffffffffffffffffffffffffffffffffffffffffffff1916908160001a905350600a856116029190612e01565b9450611580565b8093505050505b919050565b6000808212156116315781600061162c9190612eaa565b611633565b815b9050919050565b606060006040518060600160405280604081526020016130e160409139905060008351905060008114156116815760405180602001604052806000815250925050506117d4565b600060036002836116929190612d46565b61169c9190612e01565b60046116a89190612f3e565b905060006020826116b99190612d46565b67ffffffffffffffff8111156116d2576116d1611f58565b5b6040519080825280601f01601f1916602001820160405280156117045781602001600182028036833780820191505090505b5090506000849050600181016020830160005b868110156117905760038101905062ffffff818b015116603f8160121c168401518060081b905060ff603f83600c1c1686015116810190508060081b905060ff603f8360061c1686015116810190508060081b905060ff603f831686015116810190508060e01b90508084526004840193505050611717565b5060038606600181146117aa57600281146117ba576117c5565b613d3d60f01b60028303526117c5565b603d60f81b60018303525b50848452505081955050505050505b919050565b6117e38282611910565b60008273ffffffffffffffffffffffffffffffffffffffff163b14806118cd575063150b7a0260e01b7bffffffffffffffffffffffffffffffffffffffffffffffffffffffff19168273ffffffffffffffffffffffffffffffffffffffff1663150b7a02336000856040518463ffffffff1660e01b815260040161186993929190612fbe565b6020604051808303816000875af1158015611888573d6000803e3d6000fd5b505050506040513d601f19601f820116820180604052508101906118ac9190612388565b7bffffffffffffffffffffffffffffffffffffffffffffffffffffffff1916145b61190c576040517f08c379a000000000000000000000000000000000000000000000000000000000815260040161190390612401565b60405180910390fd5b5050565b600073ffffffffffffffffffffffffffffffffffffffff168273ffffffffffffffffffffffffffffffffffffffff161415611980576040517f08c379a000000000000000000000000000000000000000000000000000000000815260040161197790613054565b60405180910390fd5b600073ffffffffffffffffffffffffffffffffffffffff166003600083815260200190815260200160002060009054906101000a900473ffffffffffffffffffffffffffffffffffffffff1673ffffffffffffffffffffffffffffffffffffffff1614611a22576040517f08c379a0000000000000000000000000000000000000000000000000000000008152600401611a19906130c0565b60405180910390fd5b600260008373ffffffffffffffffffffffffffffffffffffffff1673ffffffffffffffffffffffffffffffffffffffff16815260200190815260200160002060008154809291906001019190505550816003600083815260200190815260200160002060006101000a81548173ffffffffffffffffffffffffffffffffffffffff021916908373ffffffffffffffffffffffffffffffffffffffff160217905550808273ffffffffffffffffffffffffffffffffffffffff16600073ffffffffffffffffffffffffffffffffffffffff167fddf252ad1be2c89b69c2b068fc378daa952ba7f163c4a11628f55a4df523b3ef60405160405180910390a45050565b6000604051905090565b600080fd5b600080fd5b60007fffffffff0000000000000000000000000000000000000000000000000000000082169050919050565b611b6c81611b37565b8114611b7757600080fd5b50565b600081359050611b8981611b63565b92915050565b600060208284031215611ba557611ba4611b2d565b5b6000611bb384828501611b7a565b91505092915050565b60008115159050919050565b611bd181611bbc565b82525050565b6000602082019050611bec6000830184611bc8565b92915050565b600081519050919050565b600082825260208201905092915050565b60005b83811015611c2c578082015181840152602081019050611c11565b83811115611c3b576000848401525b50505050565b6000601f19601f8301169050919050565b6000611c5d82611bf2565b611c678185611bfd565b9350611c77818560208601611c0e565b611c8081611c41565b840191505092915050565b60006020820190508181036000830152611ca58184611c52565b905092915050565b6000819050919050565b611cc081611cad565b8114611ccb57600080fd5b50565b600081359050611cdd81611cb7565b92915050565b600060208284031215611cf957611cf8611b2d565b5b6000611d0784828501611cce565b91505092915050565b600073ffffffffffffffffffffffffffffffffffffffff82169050919050565b6000611d3b82611d10565b9050919050565b611d4b81611d30565b82525050565b6000602082019050611d666000830184611d42565b92915050565b611d7581611d30565b8114611d8057600080fd5b50565b600081359050611d9281611d6c565b92915050565b60008060408385031215611daf57611dae611b2d565b5b6000611dbd85828601611d83565b9250506020611dce85828601611cce565b9150509250929050565b611de181611cad565b82525050565b6000602082019050611dfc6000830184611dd8565b92915050565b600080600060608486031215611e1b57611e1a611b2d565b5b6000611e2986828701611d83565b9350506020611e3a86828701611d83565b9250506040611e4b86828701611cce565b9150509250925092565b60008160000b9050919050565b611e6b81611e55565b82525050565b6000604082019050611e866000830185611e62565b611e936020830184611e62565b9392505050565b6000602082019050611eaf6000830184611e62565b92915050565b600060208284031215611ecb57611eca611b2d565b5b6000611ed984828501611d83565b91505092915050565b611eeb81611bbc565b8114611ef657600080fd5b50565b600081359050611f0881611ee2565b92915050565b60008060408385031215611f2557611f24611b2d565b5b6000611f3385828601611d83565b9250506020611f4485828601611ef9565b9150509250929050565b600080fd5b600080fd5b7f4e487b7100000000000000000000000000000000000000000000000000000000600052604160045260246000fd5b611f9082611c41565b810181811067ffffffffffffffff82111715611faf57611fae611f58565b5b80604052505050565b6000611fc2611b23565b9050611fce8282611f87565b919050565b600067ffffffffffffffff821115611fee57611fed611f58565b5b611ff782611c41565b9050602081019050919050565b82818337600083830152505050565b600061202661202184611fd3565b611fb8565b90508281526020810184848401111561204257612041611f53565b5b61204d848285612004565b509392505050565b600082601f83011261206a57612069611f4e565b5b813561207a848260208601612013565b91505092915050565b6000806000806080858703121561209d5761209c611b2d565b5b60006120ab87828801611d83565b94505060206120bc87828801611d83565b93505060406120cd87828801611cce565b925050606085013567ffffffffffffffff8111156120ee576120ed611b32565b5b6120fa87828801612055565b91505092959194509250565b61210f81611e55565b811461211a57600080fd5b50565b60008135905061212c81612106565b92915050565b60008060006060848603121561214b5761214a611b2d565b5b60006121598682870161211d565b935050602061216a8682870161211d565b925050604061217b86828701611cce565b9150509250925092565b6000806040838503121561219c5761219b611b2d565b5b60006121aa8582860161211d565b92505060206121bb8582860161211d565b9150509250929050565b600080604083850312156121dc576121db611b2d565b5b60006121ea85828601611d83565b92505060206121fb85828601611d83565b9150509250929050565b7f4e487b7100000000000000000000000000000000000000000000000000000000600052602260045260246000fd5b6000600282049050600182168061224c57607f821691505b602082108114156122605761225f612205565b5b50919050565b7f4e4f545f415554484f52495a4544000000000000000000000000000000000000600082015250565b600061229c600e83611bfd565b91506122a782612266565b602082019050919050565b600060208201905081810360008301526122cb8161228f565b9050919050565b600081519050919050565b600082825260208201905092915050565b60006122f9826122d2565b61230381856122dd565b9350612313818560208601611c0e565b61231c81611c41565b840191505092915050565b600060808201905061233c6000830187611d42565b6123496020830186611d42565b6123566040830185611dd8565b818103606083015261236881846122ee565b905095945050505050565b60008151905061238281611b63565b92915050565b60006020828403121561239e5761239d611b2d565b5b60006123ac84828501612373565b91505092915050565b7f554e534146455f524543495049454e5400000000000000000000000000000000600082015250565b60006123eb601083611bfd565b91506123f6826123b5565b602082019050919050565b6000602082019050818103600083015261241a816123de565b9050919050565b7f4e487b7100000000000000000000000000000000000000000000000000000000600052601260045260246000fd5b7f4e487b7100000000000000000000000000000000000000000000000000000000600052601160045260246000fd5b600061248a82611e55565b915061249583611e55565b9250826124a5576124a4612421565b5b600160000383147fffffffffffffffffffffffffffffffffffffffffffffffffffffffffffffff80831416156124de576124dd612450565b5b828205905092915050565b6000819050919050565b60006124fe826124e9565b9150612509836124e9565b9250817f7fffffffffffffffffffffffffffffffffffffffffffffffffffffffffffffff0383136000831215161561254457612543612450565b5b817f800000000000000000000000000000000000000000000000000000000000000003831260008312161561257c5761257b612450565b5b828201905092915050565b6000612592826124e9565b915061259d836124e9565b9250827f7fffffffffffffffffffffffffffffffffffffffffffffffffffffffffffffff04821160008413600084131616156125dc576125db612450565b5b817f8000000000000000000000000000000000000000000000000000000000000000058312600084126000841316161561261957612618612450565b5b827f8000000000000000000000000000000000000000000000000000000000000000058212600084136000841216161561265657612655612450565b5b827f7fffffffffffffffffffffffffffffffffffffffffffffffffffffffffffffff058212600084126000841216161561269357612692612450565b5b828202905092915050565b60006126a9826124e9565b91506126b4836124e9565b9250826126c4576126c3612421565b5b600160000383147f8000000000000000000000000000000000000000000000000000000000000000831416156126fd576126fc612450565b5b828205905092915050565b600081905092915050565b7f203c672069643d226d696e75746522207472616e73666f726d203d2022726f7460008201527f6174652800000000000000000000000000000000000000000000000000000000602082015250565b600061276f602483612708565b915061277a82612713565b602482019050919050565b600061279082611bf2565b61279a8185612708565b93506127aa818560208601611c0e565b80840191505092915050565b7f202029223e2020202020203c7061746820636c6173733d226d696e7574652d6160008201527f726d2220643d224d3230302032303056373822202f3e2020202020203c63697260208201527f636c6520636c6173733d2273697a696e672d626f78222063783d22323030222060408201527f63793d223230302220723d2231333022202f3e202020203c2f673e202020203c60608201527f672069643d22686f757222207472616e73666f726d203d2022726f7461746528608082015250565b600061288460a083612708565b915061288f826127b6565b60a082019050919050565b7f202029223e2020202020203c7061746820636c6173733d22686f75722d61726d60008201527f2220643d224d323030203230305631343022202f3e2020202020203c6369726360208201527f6c6520636c6173733d2273697a696e672d626f78222063783d2232303022206360408201527f793d223230302220723d2231333022202f3e202020203c2f673e202000000000606082015250565b6000612942607c83612708565b915061294d8261289a565b607c82019050919050565b600061296382612762565b915061296f8285612785565b915061297a82612877565b91506129868284612785565b915061299182612935565b91508190509392505050565b60006129a98286612785565b91506129b58285612785565b91506129c18284612785565b9150819050949350505050565b7f7b226e616d65223a20224d6f6d656e744e465420000000000000000000000000600082015250565b6000612a04601483612708565b9150612a0f826129ce565b601482019050919050565b7f222c20226465736372697074696f6e223a202246756c6c79206f6e2d6368616960008201527f6e20636c6f636b204e465420746861742073686f777320796f7520746865206360208201527f757272656e742074696d652e2054696d65207a6f6e652073657420746f20555460408201527f4300000000000000000000000000000000000000000000000000000000000000606082015250565b6000612ac2606183612708565b9150612acd82612a1a565b606182019050919050565b7f222c2022696d616765223a2022646174613a696d6167652f7376672b786d6c3b60008201527f6261736536342c00000000000000000000000000000000000000000000000000602082015250565b6000612b34602783612708565b9150612b3f82612ad8565b602782019050919050565b7f227d000000000000000000000000000000000000000000000000000000000000600082015250565b6000612b80600283612708565b9150612b8b82612b4a565b600282019050919050565b6000612ba1826129f7565b9150612bad8287612785565b9150612bb882612ab5565b9150612bc48286612785565b9150612bd08285612785565b9150612bdb82612b27565b9150612be78284612785565b9150612bf282612b73565b915081905095945050505050565b7f646174613a6170706c69636174696f6e2f6a736f6e3b6261736536342c000000600082015250565b6000612c36601d83612708565b9150612c4182612c00565b601d82019050919050565b6000612c5782612c29565b9150612c638284612785565b915081905092915050565b7f496e73756666696369656e74207061796d656e74000000000000000000000000600082015250565b6000612ca4601483611bfd565b9150612caf82612c6e565b602082019050919050565b60006020820190508181036000830152612cd381612c97565b9050919050565b7f416c726561647920436c61696d65640000000000000000000000000000000000600082015250565b6000612d10600f83611bfd565b9150612d1b82612cda565b602082019050919050565b60006020820190508181036000830152612d3f81612d03565b9050919050565b6000612d5182611cad565b9150612d5c83611cad565b9250827fffffffffffffffffffffffffffffffffffffffffffffffffffffffffffffffff03821115612d9157612d90612450565b5b828201905092915050565b6000612da782611cad565b9150612db283611cad565b925082821015612dc557612dc4612450565b5b828203905092915050565b6000612ddb82611cad565b9150612de683611cad565b925082612df657612df5612421565b5b828206905092915050565b6000612e0c82611cad565b9150612e1783611cad565b925082612e2757612e26612421565b5b828204905092915050565b6000612e3d82611cad565b91507fffffffffffffffffffffffffffffffffffffffffffffffffffffffffffffffff821415612e7057612e6f612450565b5b600182019050919050565b7f4e487b7100000000000000000000000000000000000000000000000000000000600052603260045260246000fd5b6000612eb5826124e9565b9150612ec0836124e9565b9250827f800000000000000000000000000000000000000000000000000000000000000001821260008412151615612efb57612efa612450565b5b827f7fffffffffffffffffffffffffffffffffffffffffffffffffffffffffffffff018213600084121615612f3357612f32612450565b5b828203905092915050565b6000612f4982611cad565b9150612f5483611cad565b9250817fffffffffffffffffffffffffffffffffffffffffffffffffffffffffffffffff0483118215151615612f8d57612f8c612450565b5b828202905092915050565b50565b6000612fa86000836122dd565b9150612fb382612f98565b600082019050919050565b6000608082019050612fd36000830186611d42565b612fe06020830185611d42565b612fed6040830184611dd8565b8181036060830152612ffe81612f9b565b9050949350505050565b7f494e56414c49445f524543495049454e54000000000000000000000000000000600082015250565b600061303e601183611bfd565b915061304982613008565b602082019050919050565b6000602082019050818103600083015261306d81613031565b9050919050565b7f414c52454144595f4d494e544544000000000000000000000000000000000000600082015250565b60006130aa600e83611bfd565b91506130b582613074565b602082019050919050565b600060208201905081810360008301526130d98161309d565b905091905056fe4142434445464748494a4b4c4d4e4f505152535455565758595a6162636465666768696a6b6c6d6e6f707172737475767778797a303132333435363738392b2f203c7376672077696474683d2234303022206865696768743d22343030222076696577426f783d223020302034303020343030222066696c6c3d226e6f6e652220786d6c6e733d22687474703a2f2f7777772e77332e6f72672f323030302f737667223e202020203c6465663e2020202020203c7374796c653e2020202020202e6d696e7574652d61726d207b202020202020202066696c6c3a206e6f6e653b20202020202020207374726f6b653a20234133413341333b20202020202020207374726f6b652d77696474683a20363b20202020202020207374726f6b652d6d697465726c696d69743a20383b2020202020207d2020202020202e686f75722d61726d207b202020202020202066696c6c3a206e6f6e653b20202020202020207374726f6b653a20236666663b20202020202020207374726f6b652d77696474683a20363b20202020202020207374726f6b652d6d697465726c696d69743a20383b2020202020207d202020202020236d696e7574652c23686f7572207b20202020202020207472616e73666f726d2d6f726967696e3a2032303070782032303070783b2020202020207d202020203c2f7374796c653e202020203c2f6465663e202020203c726563742077696474683d2234303022206865696768743d22343030222066696c6c3d22776869746522202f3e202020203c636972636c652063783d22323030222063793d223230302220723d2231343722207374726f6b653d22626c61636b22207374726f6b652d77696474683d223622202f3e202020203c636972636c652063783d22323030222063793d223230302220723d22313435222066696c6c3d22626c61636b22207374726f6b653d222333393339333922207374726f6b652d77696474683d223222202f3e202020203c6d61736b2069643d226d61736b305f375f363122207374796c653d226d61736b2d747970653a616c70686122206d61736b556e6974733d227573657253706163654f6e5573652220783d2236312220793d223631222077696474683d2232373822206865696768743d22323738223e2020202020203c7265637420783d223139382220793d223631222077696474683d223422206865696768743d223338222066696c6c3d222343344334433422202f3e2020202020203c7265637420783d223139382220793d22333031222077696474683d223422206865696768743d223338222066696c6c3d222343344334433422202f3e2020202020203c7265637420783d2236312220793d22323032222077696474683d223422206865696768743d22333822207472616e73666f726d3d22726f74617465282d39302036312032303229222066696c6c3d222343344334433422202f3e2020202020203c7265637420783d223330312220793d22323032222077696474683d223422206865696768743d22333822207472616e73666f726d3d22726f74617465282d3930203330312032303229222066696c6c3d222343344334433422202f3e2020202020203c7265637420783d223133322e3233322220793d223332312e333738222077696474683d223422206865696768743d22333822207472616e73666f726d3d22726f74617465282d313530203133322e323332203332312e33373829222066696c6c3d222343344334433422202f3e2020202020203c7265637420783d223235322e3233322220793d223131332e353331222077696474683d223422206865696768743d22333822207472616e73666f726d3d22726f74617465282d313530203235322e323332203131332e35333129222066696c6c3d222343344334433422202f3e2020202020203c7265637420783d2238302e363232342220793d223237312e323332222077696474683d223422206865696768743d22333822207472616e73666f726d3d22726f74617465282d3132302038302e36323234203237312e32333229222066696c6c3d222343344334433422202f3e2020202020203c7265637420783d223238382e3436392220793d223135312e323332222077696474683d223422206865696768743d22333822207472616e73666f726d3d22726f74617465282d313230203238382e343639203135312e32333229222066696c6c3d222343344334433422202f3e2020202020203c7265637420783d2237382e363232342220793d223133322e323332222077696474683d223422206865696768743d22333822207472616e73666f726d3d22726f74617465282d36302037382e36323234203133322e32333229222066696c6c3d222343344334433422202f3e2020202020203c7265637420783d223238362e3436392220793d223235322e323332222077696474683d223422206865696768743d22333822207472616e73666f726d3d22726f74617465282d3630203238362e343639203235322e32333229222066696c6c3d222343344334433422202f3e2020202020203c7265637420783d223237312e3233322220793d223331392e333738222077696474683d223422206865696768743d22333822207472616e73666f726d3d22726f7461746528313530203237312e323332203331392e33373829222066696c6c3d222343344334433422202f3e2020202020203c7265637420783d223135312e3233322220793d223131312e353331222077696474683d223422206865696768743d22333822207472616e73666f726d3d22726f7461746528313530203135312e323332203131312e35333129222066696c6c3d222343344334433422202f3e202020203c2f6d61736b3e202020203c67206d61736b3d2275726c28236d61736b305f375f363129223e2020202020203c6d61736b2069643d226d61736b315f375f363122207374796c653d226d61736b2d747970653a616c70686122206d61736b556e6974733d227573657253706163654f6e5573652220783d2234352220793d223431222077696474683d2233323422206865696768743d22333136223e20202020202020203c7265637420783d2234352220793d223431222077696474683d2233323422206865696768743d22333136222066696c6c3d2275726c28237061696e74305f6c696e6561725f375f36312922202f3e2020202020203c2f6d61736b3e2020202020203c67206d61736b3d2275726c28236d61736b315f375f363129223e20202020202020203c7265637420783d2231332220793d2239222077696474683d2233383722206865696768743d22333539222066696c6c3d222346353834464622202f3e20202020202020203c672066696c7465723d2275726c282366696c746572305f665f375f363129223e202020202020202020203c636972636c652063783d2238322e35222063793d223131372e352220723d223131372e35222066696c6c3d222346463834434522202f3e20202020202020203c2f673e20202020202020203c672066696c7465723d2275726c282366696c746572315f665f375f363129223e202020202020202020203c636972636c652063783d223334392e35222063793d223233392e352220723d223131372e35222066696c6c3d222338344137464622202f3e20202020202020203c2f673e20202020202020203c672066696c7465723d2275726c282366696c746572325f665f375f363129223e202020202020202020203c636972636c652063783d223131332e35222063793d223334352e352220723d223131372e35222066696c6c3d222345303931393122202f3e20202020202020203c2f673e2020202020203c2f673e202020203c2f673e203c636972636c652063783d22323030222063793d223230302220723d2235222066696c6c3d22776869746522202f3e202020203c646566733e2020202020203c66696c7465722069643d2266696c746572305f665f375f36312220783d222d3133352220793d222d313030222077696474683d2234333522206865696768743d22343335222066696c746572556e6974733d227573657253706163654f6e557365222020202020202020636f6c6f722d696e746572706f6c6174696f6e2d66696c746572733d2273524742223e20202020202020203c6665466c6f6f6420666c6f6f642d6f7061636974793d22302220726573756c743d224261636b67726f756e64496d61676546697822202f3e20202020202020203c6665426c656e64206d6f64653d226e6f726d616c2220696e3d22536f75726365477261706869632220696e323d224261636b67726f756e64496d6167654669782220726573756c743d22736861706522202f3e20202020202020203c6665476175737369616e426c757220737464446576696174696f6e3d2235302220726573756c743d22656666656374315f666f726567726f756e64426c75725f375f363122202f3e2020202020203c2f66696c7465723e2020202020203c66696c7465722069643d2266696c746572315f665f375f36312220783d223133322220793d223232222077696474683d2234333522206865696768743d22343335222066696c746572556e6974733d227573657253706163654f6e557365222020202020202020636f6c6f722d696e746572706f6c6174696f6e2d66696c746572733d2273524742223e20202020202020203c6665466c6f6f6420666c6f6f642d6f7061636974793d22302220726573756c743d224261636b67726f756e64496d61676546697822202f3e20202020202020203c6665426c656e64206d6f64653d226e6f726d616c2220696e3d22536f75726365477261706869632220696e323d224261636b67726f756e64496d6167654669782220726573756c743d22736861706522202f3e20202020202020203c6665476175737369616e426c757220737464446576696174696f6e3d2235302220726573756c743d22656666656374315f666f726567726f756e64426c75725f375f363122202f3e2020202020203c2f66696c7465723e2020202020203c66696c7465722069643d2266696c746572325f665f375f36312220783d222d3130342220793d22313238222077696474683d2234333522206865696768743d22343335222066696c746572556e6974733d227573657253706163654f6e557365222020202020202020636f6c6f722d696e746572706f6c6174696f6e2d66696c746572733d2273524742223e20202020202020203c6665466c6f6f6420666c6f6f642d6f7061636974793d22302220726573756c743d224261636b67726f756e64496d61676546697822202f3e20202020202020203c6665426c656e64206d6f64653d226e6f726d616c2220696e3d22536f75726365477261706869632220696e323d224261636b67726f756e64496d6167654669782220726573756c743d22736861706522202f3e20202020202020203c6665476175737369616e426c757220737464446576696174696f6e3d2235302220726573756c743d22656666656374315f666f726567726f756e64426c75725f375f363122202f3e2020202020203c2f66696c7465723e2020202020203c6c696e6561724772616469656e742069643d227061696e74305f6c696e6561725f375f3631222078313d22323037222079313d223431222078323d22323037222079323d2233353722206772616469656e74556e6974733d227573657253706163654f6e557365223e20202020202020203c73746f702073746f702d636f6c6f723d222346463834434522202f3e20202020202020203c73746f70206f66667365743d2231222073746f702d636f6c6f723d222339323344464622202f3e2020202020203c2f6c696e6561724772616469656e743e202020203c2f646566733e20203c2f7376673ea26469706673582212202e14f96fad982a14f94a50be1b238749ca4516bf9bfcf3a0ba5f5f253299add464736f6c634300080a0033",
  "devdoc": {
    "kind": "dev",
    "methods": {},
    "version": 1
  },
  "userdoc": {
    "kind": "user",
    "methods": {},
    "version": 1
  },
  "storageLayout": {
    "storage": [
      {
        "astId": 231,
        "contract": "contracts/momentNFT.sol:momentNFT",
        "label": "name",
        "offset": 0,
        "slot": "0",
        "type": "t_string_storage"
      },
      {
        "astId": 233,
        "contract": "contracts/momentNFT.sol:momentNFT",
        "label": "symbol",
        "offset": 0,
        "slot": "1",
        "type": "t_string_storage"
      },
      {
        "astId": 244,
        "contract": "contracts/momentNFT.sol:momentNFT",
        "label": "balanceOf",
        "offset": 0,
        "slot": "2",
        "type": "t_mapping(t_address,t_uint256)"
      },
      {
        "astId": 248,
        "contract": "contracts/momentNFT.sol:momentNFT",
        "label": "ownerOf",
        "offset": 0,
        "slot": "3",
        "type": "t_mapping(t_uint256,t_address)"
      },
      {
        "astId": 252,
        "contract": "contracts/momentNFT.sol:momentNFT",
        "label": "getApproved",
        "offset": 0,
        "slot": "4",
        "type": "t_mapping(t_uint256,t_address)"
      },
      {
        "astId": 258,
        "contract": "contracts/momentNFT.sol:momentNFT",
        "label": "isApprovedForAll",
        "offset": 0,
        "slot": "5",
        "type": "t_mapping(t_address,t_mapping(t_address,t_bool))"
      },
      {
        "astId": 730,
        "contract": "contracts/momentNFT.sol:momentNFT",
        "label": "tokenCounter",
        "offset": 0,
        "slot": "6",
        "type": "t_uint256"
      },
      {
        "astId": 755,
        "contract": "contracts/momentNFT.sol:momentNFT",
        "label": "claimed",
        "offset": 0,
        "slot": "7",
        "type": "t_mapping(t_address,t_bool)"
      },
      {
        "astId": 759,
        "contract": "contracts/momentNFT.sol:momentNFT",
        "label": "timeZoneHour",
        "offset": 0,
        "slot": "8",
        "type": "t_mapping(t_uint256,t_int8)"
      },
      {
        "astId": 763,
        "contract": "contracts/momentNFT.sol:momentNFT",
        "label": "timeZoneMin",
        "offset": 0,
        "slot": "9",
        "type": "t_mapping(t_uint256,t_int8)"
      },
      {
        "astId": 767,
        "contract": "contracts/momentNFT.sol:momentNFT",
        "label": "TokenIDOfAddress",
        "offset": 0,
        "slot": "10",
        "type": "t_mapping(t_address,t_uint256)"
      }
    ],
    "types": {
      "t_address": {
        "encoding": "inplace",
        "label": "address",
        "numberOfBytes": "20"
      },
      "t_bool": {
        "encoding": "inplace",
        "label": "bool",
        "numberOfBytes": "1"
      },
      "t_int8": {
        "encoding": "inplace",
        "label": "int8",
        "numberOfBytes": "1"
      },
      "t_mapping(t_address,t_bool)": {
        "encoding": "mapping",
        "key": "t_address",
        "label": "mapping(address => bool)",
        "numberOfBytes": "32",
        "value": "t_bool"
      },
      "t_mapping(t_address,t_mapping(t_address,t_bool))": {
        "encoding": "mapping",
        "key": "t_address",
        "label": "mapping(address => mapping(address => bool))",
        "numberOfBytes": "32",
        "value": "t_mapping(t_address,t_bool)"
      },
      "t_mapping(t_address,t_uint256)": {
        "encoding": "mapping",
        "key": "t_address",
        "label": "mapping(address => uint256)",
        "numberOfBytes": "32",
        "value": "t_uint256"
      },
      "t_mapping(t_uint256,t_address)": {
        "encoding": "mapping",
        "key": "t_uint256",
        "label": "mapping(uint256 => address)",
        "numberOfBytes": "32",
        "value": "t_address"
      },
      "t_mapping(t_uint256,t_int8)": {
        "encoding": "mapping",
        "key": "t_uint256",
        "label": "mapping(uint256 => int8)",
        "numberOfBytes": "32",
        "value": "t_int8"
      },
      "t_string_storage": {
        "encoding": "bytes",
        "label": "string",
        "numberOfBytes": "32"
      },
      "t_uint256": {
        "encoding": "inplace",
        "label": "uint256",
        "numberOfBytes": "32"
      }
    }
  }
}